:020000020000FC
:1000000012C0189518951895189518951895189563
:100010001895189518951895189518951895189578
:10002000189518951895F894A89504B7007004BF12
:1000300001B5086101BD00E001BD00E805BF06E0B3
:1000400001BB00EA07BB0AE2F02E1FEF1FB90DB992
:1000500000EF0EB9F39401E00093780002E0009302
:10006000790003E000937A0004E000937B0005E050
:1000700000937C0006E000937D000FED10E00DBFC3
:1000800021E0929A08B312B3110F2FE002232295B8
:100090001223012B9298A02E08B312B3110F122332
:1000A00022950223012BB02E929A08B312B3110F9E
:1000B000022322951223012B003019F3A01A09F014
:1000C000E0CF122F102319F4220FA394FACF0A2D98
:1000D00010E6010FB0E0A02FCC900C2D0B1981F28F
:1000E000DD24DA0CD29421E018E03C2D3B25D3949A
:1000F000122F132329F0022F0C21022729F011C0FF
:10010000220F1A95D9F0F3CF6DD0402F1FD02DD0EC
:100110003CD044272AD039D048D0220F1A9571F00C
:10012000E6CF75D0402F12D020D02FD04D2D1DD02E
:100130002CD03BD0220F1A9509F0D9CFC3260A2D17
:1001400010E6010FB0E0A02FCC929ACF08B310EACE
:10015000012B18BB36D000E808BB33D0FDB8779B25
:10016000F5CF779A00E208BB089508E0102F4FB949
:1001700000EF0EB9FDB825D0B79BFDCFFDB821D05B
:10018000B799FDCF1A95B1F70895BD980EEF0EB946
:1001900010E01FB9FDB815D0B79BFDCFFDB811D049
:1001A000B799FCCF769ABD9A089508B310E8012B51
:1001B00018BB07D010EA012B18BB0FEF0FB901D005
:1001C0000895000000000000000000000000000092
:1001D000000000000000000000000000000000001F
:1001E00000000895A8E6B0E042D00D2D5AD000E0FE
:1001F000011B61F07BD048D0A0E7B0E038D076D0CA
:1002000043D0A8E7B0E033D01DD03ED00895A8E693
:10021000B0E02DD00D2D16D037D0A8E7B0E027D014
:1002200010E01BD031D0A0E7B0E021D0E02E010FCC
:1002300021F00E2D07D028D0089515E057D002D018
:1002400023D00895192D1030982C872C762C652CEE
:10025000542C432C322C202E0895022D232C342C88
:10026000452C562C672C782C892C912E0895AF9311
:10027000BF932D903D904D905D906D907D908D90B1
:100280009D90BF91AF910895AF93BF932D923D92F2
:100290004D925D926D927D928D929D92BF91AF91A4
:1002A00008951F9318E0192D101BE9F01A95182DC9
:1002B000101BC9F01A95172D101BA9F01A95162DB1
:1002C000101B89F01A95152D101B69F01A95142D25
:1002D000101B49F01A95132D101B29F01A95122D99
:1002E000101B09F01A95112F1F9108951F931A954D
:1002F000110FEFE7F1E0E10F08F4F3950994022DF7
:100300000EC0032D0DC0042D0CC0052D0BC0062DF5
:100310000AC0072D09C0082D08C0092D07C0232CCD
:10032000342C452C562C672C782C892C99241F9121
:0203300008952E
:00000001FF
