S01400004D4944495379736578426F782E73726563A8
S113000014C0E1C01AC14FC2F4C1C6C172C12AC32F
S113001027C0EEC225C024C019C222C021C020C0FE
S11300201FC01EC01DC01CC01BC011241FBECFE5B5
S1130030D1E0DEBFCDBF10E0A0E6B0E0EAEEF8E02C
S113004002C005900D92A037B107D9F721E0A0E7CF
S1130050B0E001C01D92A832B207E1F764D343C4F3
S1130060CFCFFC018FB7F8947183608353834283AD
S113007017821682158214828FBF0895FC019FB7E0
S1130080F8942481358121153105C9F046815781C1
S1130090A081B181A40FB51F8C914F5F5F4F57832F
S11300A04683628173814617570720F0461B570B1E
S11300B057834683215031093583248301C080E06E
S11300C09FBF0895CF93DF93FC01D62FCFB7F89449
S11300D084819581628173818617970790F44681A4
S11300E05781840F951FBAD3A081B181A80FB91F7E
S11300F0DC9384819581019695838483CFBF8FEFB0
S113010002C0CFBF80E0DF91CF9108951092FE002E
S11301101092FF001092000110920101109202014E
S11301201092030110920401109205018A98929A88
S11301308C98949A85B7816085BF85B78D7F85BF7C
S11301408BB780648BBF8B98939A8D98959A85B75B
S1130150846085BF85B7877F85BF8BB780688BBF79
S1130160789408958BB780648BBF8BB780688BBFFE
S113017008950F931F93823068F4E82FF0E0EE0F98
S1130180FF1FEE0FFF1FE250FF4F008111812281FC
S1130190338103C000E010E09801602F712F822F9B
S11301A0932F1F910F910895823060F4E82FF0E0AF
S11301B0EE0FFF1FEE0FFF1FE250FF4F40835183EE
S11301C06283738308951F920F920FB60F921124C6
S11301D08F939F93AF93BF93EF93FF9390B380B3A9
S11301E08295817092FB992790F9981771F0EEEF40
S11301F0F0E080819181A281B3810196A11DB11D9E
S113020080839183A283B3830DC0EEEFF0E08081FD
S11302109181A281B3810197A109B109808391835E
S1130220A283B383FF91EF91BF91AF919F918F917F
S11302300F900FBE0F901F9018951F920F920FB63C
S11302400F9211248F939F93AF93BF93EF93FF93D8
S113025090B380B385FB882780F993FB992790F9A5
S1130260981771F0E2E0F1E080819181A281B3817D
S11302700196A11DB11D80839183A283B3830DC018
S1130280E2E0F1E080819181A281B3810197A1092B
S1130290B10980839183A283B383FF91EF91BF91CE
S11302A0AF919F918F910F900FBE0F901F90189553
S11302B093B7987F892B83BF0895873040F4E82F44
S11302C0F0E0EE0FFF1FE059FF4F71836083089544
S11302D0109208011092090110920A0110920B0168
S11302E0089582E0E5DF12BE89B7826089BFF0DF3E
S11302F008951F920F920FB60F9211242F933F93DC
S11303004F935F936F937F938F939F93AF93BF9319
S1130310EF93FF938091080190910901A0910A0144
S1130320B0910B010196A11DB11D8093080190931A
S11303300901A0930A01B0930B0180910C019091E3
S11303400D01A0910E01B0910F010196A11DB11DE7
S113035080930C0190930D01A0930E01B0930F01B3
S11303608091700090917100892B29F0E0917000C8
S1130370F09171000995FF91EF91BF91AF919F9119
S11303808F917F916F915F914F913F912F910F903A
S11303900FBE0F901F9018951F920F920FB60F92D9
S11303A011242F933F934F935F936F937F938F9376
S11303B09F93AF93BF93EF93FF93809172009091BB
S11303C07300892B29F0E0917200F0917300099574
S11303D0FF91EF91BF91AF919F918F917F916F9119
S11303E05F914F913F912F910F900FBE0F901F90EF
S11303F018951F920F920FB60F9211242F933F93CB
S11304004F935F936F937F938F939F93AF93BF9318
S1130410EF93FF938091740090917500892B29F0DC
S1130420E0917400F09175000995FF91EF91BF91EF
S1130430AF919F918F917F916F915F914F913F9178
S11304402F910F900FBE0F901F9018951F920F922F
S11304500FB60F9211242F933F934F935F936F9393
S11304607F938F939F93AF93BF93EF93FF93809169
S1130470760090917700892B29F0E0917600F09135
S113048077000995FF91EF91BF91AF919F918F9163
S11304907F916F915F914F913F912F910F900FBE7C
S11304A00F901F9018951F920F920FB60F92112460
S11304B02F933F934F935F936F937F938F939F9368
S11304C0AF93BF93EF93FF9380917800909179005D
S11304D0892B29F0E0917800F09179000995FF913A
S11304E0EF91BF91AF919F918F917F916F915F91A8
S11304F04F913F912F910F900FBE0F901F90189521
S113050040E050E060E870E085E191E0AADD40E27F
S113051050E060E870E08EE191E0A3DD0895CF92B1
S1130520DF92EF92FF920F2EF0E4CF2EF2E4DF2E53
S1130530FFE0EF2EF12CF02DC60ED71EE81EF91E9B
S1130540CC0CDD1CEE1CFF1CCC0CDD1CEE1CFF1CBB
S1130550CC0CDD1CEE1CFF1CDC01CB01880F991FA9
S1130560AA1FBB1F880F991FAA1FBB1F9C01AD01A7
S1130570220F331F441F551F220F331F441F551FC3
S1130580C701B6017FD12150310929B932B9FF9091
S1130590EF90DF90CF900895B3DF10927F00109218
S11305A07E0088ED8AB962E17AE780E090E0B7DF07
S11305B08FEF8093140110921D0110922701109265
S11305C0260178940895909114019923E1F38CB94C
S11305D0109214010895682F8EE191E073DD08955F
S11305E08FEF80931D018EE191E048DDECDF0895EB
S11305F01F920F920FB60F9211242F933F934F9394
S11306005F936F937F938F939F93AF93BF93EF9376
S1130610FF9380911D01882389F08091220190919C
S11306202301892B29F08EE191E028DD8CB909C0E2
S113063010921D018FEF8093140103C08FEF8093FC
S11306401401FF91EF91BF91AF919F918F917F9191
S11306506F915F914F913F912F910F900FBE0F902B
S11306601F9018951F920F920FB60F9211242F937B
S11306703F934F935F936F937F938F939F93AF9326
S1130680BF93EF93FF938CB120917E0030917F0054
S1130690232B31F0E0917E00F0917F0009950FC08B
S11306A0682F85E191E00EDD811109C0809126015A
S11306B09091270101969093270180932601FF9141
S11306C0EF91BF91AF919F918F917F916F915F91C6
S11306D04F913F912F910F900FBE0F901F9018953F
S11306E00F931F93CF93DF93C091A000D0E0CC0F62
S11306F0DD1FCF55DF4F0881198180E03ADD600F9F
S1130700711F798368832EDD8091A00090E00196AB
S1130710837090788093A00088BBF8DCDF91CF9140
S11307201F910F91089588E10FB6F89481BD11BC13
S11307300FBE83E087BB30DFE9DCD3DD60E773E025
S113074080E0BBDD0F2EF9EA8F2EF0E09F2EF02D16
S11307500F2EF1EACF2EF0E0DF2EF02D0F2EF3E076
S11307606F2E712CF02D81E004DD672B682B692B33
S113077009F471C081E0FDDC8091A900680F637009
S11307806093A900E199FECF70E062957295707F45
S11307907627607F76276050704040E150E080E625
S11307A090E092D040E050E0BA0181E0FDDC53C01B
S11307B02297FE01288139812115310509F444C0AD
S11307C0C801880F991F880F991F0F2EF0E6EF2E8E
S11307D0F0E0FF2EF02DE80EF91E4091A900440F21
S11307E0440F400F50E0DA01A655BF4FAC90B90159
S11307F06A0D711DD7011396BC9013978B2D90E051
S1130800861797075CF01296BC908B2D992787FD6D
S113081090956817790714F0BA2CB20EDA01A65530
S1130820BF4FBC921182108280EFD5DE83E4D3DE09
S113083081E1D1DEF7018081CEDED70111968C9162
S1130840CADE8B2DC8DECCDE01501109CC15DD05C6
S113085009F0AECF88CFE4018301AACFAA1BBB1B4A
S113086051E107C0AA1FBB1FA617B70710F0A61BAC
S1130870B70B881F991F5A95A9F780959095BC01CD
S1130880CD010895A1E21A2EAA1BBB1BFD010DC0C8
S1130890AA1FBB1FEE1FFF1FA217B307E407F5072C
S11308A020F0A21BB30BE40BF50B661F771F881F08
S11308B0991F1A9469F760957095809590959B019E
S11308C0AC01BD01CF010895DC01862FE82FE19929
S11308D0FECF1FBA05C0EEBBE09AE3950DB20D92B0
S10D08E04150C8F70895F894FFCFC3
S11308EA00690063006A0063006B0063006C0063C4
S9030000FC
