S01400004D4944495379736578426F782E73726563A8
S113000014C0D9C012C145C2EAC1BCC168C128C06C
S113001027C0A5C225C024C00FC222C021C020C051
S11300201FC01EC01DC01CC01BC011241FBECFE5B5
S1130030D1E0DEBFCDBF10E0A0E6B0E0ECE8F7E031
S113004002C005900D92A037B107D9F721E0A0E7CF
S1130050B0E001C01D92A832B207E1F7DDD294C32B
S1130060CFCFFC018FB7F8947183608353834283AD
S113007017821682158214828FBF0895FC019FB7E0
S1130080F8942481358121153105C9F046815781C1
S1130090A081B181A40FB51F8C914F5F5F4F57832F
S11300A04683628173814617570720F0461B570B1E
S11300B057834683215031093583248301C080E06E
S11300C09FBF0895CF93DF93FC01D62FCFB7F89449
S11300D084819581628173818617970790F44681A4
S11300E05781840F951F2DD3A081B181A80FB91F0B
S11300F0DC9384819581019695838483CFBF8FEFB0
S113010002C0CFBF80E0DF91CF9108951092FE002E
S11301101092FF001092000110920101109202014E
S11301201092030110920401109205018A98929A88
S11301308C98949A85B7816085BF85B78D7F85BF7C
S11301408BB780648BBF8B98939A8D98959A85B75B
S1130150846085BF85B7877F85BF8BB780688BBF79
S1130160789408958BB780648BBF8BB780688BBFFE
S11301700895823068F4E82FF0E0EE0FFF1FEE0FD1
S1130180FF1FE250FF4F6081718182819381089546
S113019060E070E0CB010895823060F4E82FF0E075
S11301A0EE0FFF1FEE0FFF1FE250FF4F40835183FE
S11301B06283738308951F920F920FB60F921124D6
S11301C08F939F93AF93BF93EF93FF9390B380B3B9
S11301D08295817092FB992790F9981771F0EEEF50
S11301E0F0E080819181A281B3810196A11DB11DAE
S11301F080839183A283B3830DC0EEEFF0E080810E
S11302009181A281B3810197A109B109808391836E
S1130210A283B383FF91EF91BF91AF919F918F918F
S11302200F900FBE0F901F9018951F920F920FB64C
S11302300F9211248F939F93AF93BF93EF93FF93E8
S113024090B380B385FB882780F993FB992790F9B5
S1130250981771F0E2E0F1E080819181A281B3818D
S11302600196A11DB11D80839183A283B3830DC028
S1130270E2E0F1E080819181A281B3810197A1093B
S1130280B10980839183A283B383FF91EF91BF91DE
S1130290AF919F918F910F900FBE0F901F90189563
S11302A093B7987F892B83BF089582E0F9DF12BE4C
S11302B089B7826089BF10920801109209011092D7
S11302C00A0110920B010895873040F4E82FF0E002
S11302D0EE0FFF1FE059FF4F7183608308951F9253
S11302E00F920FB60F9211242F933F934F935F9366
S11302F06F937F938F939F93AF93BF93EF93FF93EA
S11303008091080190910901A0910A01B0910B011B
S11303100196A11DB11D8093080190930901A0933A
S11303200A01B0930B0180910C0190910D01A091F1
S11303300E01B0910F010196A11DB11D80930C0116
S113034090930D01A0930E01B0930F018091700062
S113035090917100892B29F0E0917000F091710067
S11303600995FF91EF91BF91AF919F918F917F91EB
S11303706F915F914F913F912F910F900FBE0F900E
S11303801F9018951F920F920FB60F9211242F935E
S11303903F934F935F936F937F938F939F93AF9309
S11303A0BF93EF93FF938091720090917300892B18
S11303B029F0E0917200F09173000995FF91EF919B
S11303C0BF91AF919F918F917F916F915F914F9169
S11303D03F912F910F900FBE0F901F9018951F9271
S11303E00F920FB60F9211242F933F934F935F9365
S11303F06F937F938F939F93AF93BF93EF93FF93E9
S11304008091740090917500892B29F0E09174001B
S1130410F09175000995FF91EF91BF91AF919F9174
S11304208F917F916F915F914F913F912F910F9099
S11304300FBE0F901F9018951F920F920FB60F9238
S113044011242F933F934F935F936F937F938F93D5
S11304509F93AF93BF93EF93FF9380917600909116
S11304607700892B29F0E0917600F09177000995C7
S1130470FF91EF91BF91AF919F918F917F916F9178
S11304805F914F913F912F910F900FBE0F901F904E
S113049018951F920F920FB60F9211242F933F932A
S11304A04F935F936F937F938F939F93AF93BF9378
S11304B0EF93FF938091780090917900892B29F034
S11304C0E0917800F09179000995FF91EF91BF9147
S11304D0AF919F918F917F916F915F914F913F91D8
S11304E02F910F900FBE0F901F90189540E250E08F
S11304F060E870E085E191E0B4DD40E050E060E860
S113050070E08EE191E0ADDD0895F0DF10927F00A0
S113051010927E0088ED8AB98FE089B912B88FEF06
S11305208093140110921D0110922701109226014C
S113053078940895909114019923E1F38CB9109261
S113054014010895682F8EE191E0BCDD08958FEFCA
S113055080931D018EE191E091DDECDF08951F92FF
S11305600F920FB60F9211242F933F934F935F93E3
S11305706F937F938F939F93AF93BF93EF93FF9367
S113058080911D01882389F080912201909123019B
S1130590892B29F08EE191E071DD8CB909C01092AC
S11305A01D018FEF8093140103C08FEF809314011A
S11305B0FF91EF91BF91AF919F918F917F916F9137
S11305C05F914F913F912F910F900FBE0F901F900D
S11305D018950F931F93CF93DF93C091A000D0E0A1
S11305E0CC0FDD1FCF55DF4F0881198180E0C1DDBD
S11305F0600F711F79836883B5DD8091A00090E05E
S11306000196837090788093A00088BB7FDDDF9192
S1130610CF911F910F91089588E10FB6F89481BD91
S113062011BC0FBE83E087BB70DF70DD3EDE69EE78
S113063072E080E049DE0F2EF9EA8F2EF0E09F2E63
S1130640F02D0F2EF1EACF2EF0E0DF2EF02D712CDD
S1130650612C0F2EF3E05F2EF02D81E08ADD672BF5
S1130660682B692B09F468C081E083DD8091A900BF
S1130670680F63706093A900E199FECF70E0629502
S11306807295707F7627607F76276050704040E1D6
S113069050E080E690E069D040E050E0BA0181E0AB
S11306A07BDD4AC02297FE0128813981211531055D
S11306B0D9F14091A900440F440F4B0D50E0DA01E9
S11306C0A655BF4F4C90B901640D711DC801805AE5
S11306D09F4F7C01DC011F96AC901F978A2D90E000
S11306E0861797075CF01E96AC908A2D992787FD94
S11306F090956817790714F0A42CA20EDA01A65578
S1130700BF4FAC921182108280EF1CDF83E41ADFAA
S113071081E118DFF701848515DFD7011D968C91DF
S113072011DF8A2D0FDF13DFBA9404501109CC15A1
S1130730DD0509F0B7CF91CFE401072D162DB52CB7
S1130740B1CFAA1BBB1B51E107C0AA1FBB1FA61731
S1130750B70710F0A61BB70B881F991F5A95A9F766
S113076080959095BC01CD010895DC01862FE82F7A
S1130770E199FECF1FBA05C0EEBBE09AE3950DB236
S10F07800D924150C8F70895F894FFCF83
S113078C00690063006A0063006B0063006C006323
S9030000FC
