:1000000056C06EC06DC034C2D9C16AC069C079C261
:1000100067C066C065C064C0FEC162C061C060C028
:10002000E2C05EC05DC05CC05BC0BC03860353031E
:100030002303F602CC02A4027E025A0238021802FE
:10004000FA01DE01C301AA0192017B01660152019E
:100050003F012D011C010C01FD00EF00E100D50066
:10006000C900BE00B300A9009F0096008E00860064
:100070007F00770071006A0064005F00590054003F
:1000800050004B00470043003F003C003800350063
:1000900032002F002D002A00280026002400220014
:1000A00000000000010008004000000100041124CD
:1000B0001FBECFEDCDBF10E0A0E6B0E0E6EAF7E06E
:1000C00002C005900D92A436B107D9F720E0A4E64E
:1000D000B0E001C01D92A63BB207E1F7D9D061C3E1
:1000E0008FCF1F93CF93DF931F92CDB7DD27182FAC
:1000F0008FEF8FB969833ED180E037D112BE82E0A5
:1001000051D16A9A6981111106C087B3806A87BB91
:1001100088B3806A88BB613031F0623029F48DB1D8
:1001200080638DB901C06D9A6E9A0F90DF91CF9167
:100130001F91089528E0209362006093600021E001
:1001400020936400362F41E0420F393018F03850C8
:10015000242FF9CF20936100603178F420E130E062
:10016000261B3109AC0102C0440F551F2A95E2F746
:1001700050936600409365000895909366008093C5
:10018000650008958091610090E0019723E0880F59
:10019000991F2A95E1F7209165003091660002C011
:1001A000369527958A95E2F72FB99091600098309F
:1001B00038F4909362002EB18FE0891B822B02C02D
:1001C0008EB187608EB908951F93CF93DF93EC01B2
:1001D000162FB0DF612F70E0CE01D4DF82E0DF9117
:1001E000CF911F91C2C01F920F920FB60F92112490
:1001F0002F933F934F935F936F937F938F939F932F
:10020000AF93BF93EF93FF9380E0AFD080916000F6
:10021000883010F48093620090916200891B809373
:10022000600080916100815080936100882329F0F3
:10023000A9DF12BE82E099D006C012BE8EB1807FC7
:100240008EB910926400FF91EF91BF91AF919F9191
:100250008F917F916F915F914F913F912F910F906F
:100260000FBE0F901F90189590916400911104C0DB
:1002700090E06BE09660A8CF08956CE321D2E92F5F
:10028000F0E0EE0FFF1FE65DFF4F85919491BCC13A
:1002900088E10FB6F89481BD11BC0FBE85B78F7A87
:1002A00085BF6DD162E080E01CDF60E084EF91E00B
:1002B000DFD111D185EC92E01FD178947AD1C82F8B
:1002C00087FD04C0D1DF8C2FD8DFF8CF85B78062DF
:1002D00085BF889585B78F7D85BFF0CFFC018FB72F
:1002E000F894718360834283148213828FBF0895D0
:1002F000FC014FB7F8942381211103C080E04FBF68
:1003000008959481A081B181A90FB11D8C919F5F47
:1003100094833281931710F0931B9483215023838D
:10032000EECFFC01462F3FB7F894838122818217DC
:1003300088F4548190E0850F911D622F70E0CCD13C
:10034000A081B181A80FB91F4C9383818F5F8383F4
:1003500081E001C080E03FBF0895FC019FB7F894A1
:1003600082812381821B9FBF089593B7987F982B2A
:1003700093BF089582E0F9DF12BE08959EB5987F7D
:10038000982B9EBD089583E0F9DF1DBC1CBC089529
:10039000EEB5E770F0E0EE0FFF1FEE55FF4F8591D1
:1003A0009491089590B7926090BF86BF12BE089551
:1003B0002EB528702EBD9BBD8ABD08951F920F9249
:1003C0000FB60F9211242F933F934F935F936F9328
:1003D0007F938F939F93AF93BF93EF93FF938091FE
:1003E0006B0090916C00892B29F0E0916B00F091EB
:1003F0006C000995FF91EF91BF91AF919F918F9103
:100400007F916F915F914F913F912F910F900FBE10
:100410000F901F9018951F920F920FB60F921124F4
:100420002F933F934F935F936F937F938F939F93FC
:10043000AF93BF93EF93FF9380916D0090916E0007
:10044000892B29F0E0916D00F0916E000995FF91E4
:10045000EF91BF91AF919F918F917F916F915F913C
:100460004F913F912F910F900FBE0F901F901895B5
:100470001F920F920FB60F9211242F933F934F9319
:100480005F936F937F938F939F93AF93BF93EF93FC
:10049000FF9380916F0090917000892B29F0E0917B
:1004A0006F00F09170000995FF91EF91BF91AF91AE
:1004B0009F918F917F916F915F914F913F912F917C
:1004C0000F900FBE0F901F90189540E267E770E005
:1004D0008AEA90E003CFF9DF10927600109275005F
:1004E00086E083B980E98AB98FE089B912B81092A1
:1004F000B0001092AF00089590937600809375003D
:1005000008951F920F920FB60F9211242F933F93CD
:100510004F935F936F937F938F939F93AF93BF930B
:10052000EF93FF938CB12091750030917600232BCF
:1005300031F0E0917500F091760009950FC0682FB9
:100540008AEA90E0EEDE811109C08091AF009091BF
:10055000B00001969093B0008093AF00FF91EF91AF
:10056000BF91AF919F918F917F916F915F914F91CB
:100570003F912F910F900FBE0F901F9018954CE058
:1005800067E970E081EB90E0A9CE87FF09C0807F2A
:10059000803919F48093A30008951092A300089560
:1005A0009091A300903921F4682F81EB90E0B9CEAF
:1005B0000895CF9381EB90E0D0DE8C3019F49FEF5B
:1005C000CFEF0DC081EB90E0C8DE80FDF8CF81EB6E
:1005D00090E08EDEC82F81EB90E08ADE982F8C2F82
:1005E000CF910895811104C08FB58F70806103C0D1
:1005F0008FB58F7080648FBD08959BBD8ABD99BDF6
:1006000088BD1DBC1CBC0895CF93DF93EC01CD3891
:100610008AE7D80710F081E012C0C2358FE0D80712
:1006200010F082E00CC0CB3E81E0D80710F083E0F0
:1006300006C0CB37D10510F084E001C085E09EDE16
:10064000A7DEBC01CE01880F991F29D09C0140E094
:1006500050E060E072E18AE790E073D02150822F91
:1006600090E09093A9008093A800DF91CF91C5CF2F
:100670000F931F93CF93DF931F92CDB7DD278C018C
:10068000698381DE8FEF9FEF93DEC801BDDF698153
:10069000862F0F90DF91CF911F910F91A3CF002450
:1006A000552704C0080E591F880F991F009729F07D
:1006B00076956795B8F37105B9F7802D952F089554
:1006C000991B79E004C0991F961708F0961B881FA4
:1006D0007A95C9F78095089597FB072E16F4009434
:1006E00006D077FD08D049D007FC05D03EF49095A0
:1006F00081959F4F0895709561957F4F0895A1E270
:100700001A2EAA1BBB1BFD010DC0AA1FBB1FEE1F8B
:10071000FF1FA217B307E407F50720F0A21BB30BD6
:10072000E40BF50B661F771F881F991F1A9469F752
:1007300060957095809590959B01AC01BD01CF01AE
:100740000895052E97FB16F400940FD057FD05D0A1
:10075000D6DF07FC02D046F408C05095409530958E
:1007600021953F4F4F4F5F4F08959095809570951D
:1007700061957F4F8F4F9F4F0895AA1BBB1B51E17F
:1007800007C0AA1FBB1FA617B70710F0A61BB70B01
:10079000881F991F5A95A9F780959095BC01CD01A6
:0607A0000895F894FFCF5C
:0407A600080108003E
:00000001FF
