:100000000004001049010000CD010000D5010000EE
:1000100000000000000000000000000000000000E0
:10002000000000000000000000000000DD010000F2
:100030000000000000000000E5010000ED010000EC
:10004000F5010000F501000000000000F5010000CE
:10005000F5010000F50100000000000000000000B4
:10006000F5010000F50100006D060000F50100003B
:10007000F5010000F501000000000000F50100009E
:100080000000000000000000000000000000000070
:100090000000000000000000000000000000000060
:1000A000C5060000F5010000F5010000F5010000A3
:1000B000F5010000F5010000F5010000F501000068
:1000C000500A0000000000100000000000000010B6
:1000D0000C00000080B588B000AFF860B9607A60AD
:1000E000BB68FB61FB68BB6100237B610AE0FB69C5
:1000F0001A1DFA61BA69111DB96112681A607B692B
:1001000004337B617A697B689A42F0D3BD4608B0BC
:1001100080BDC04680B584B000AF786039607B6830
:10012000FB600023BB6007E0FB681A1DFA60002239
:100130001A60BB680433BB60BA683B689A42F3D369
:10014000BD4604B080BDC04680B584B000AF1C4B36
:10015000FB6016E0FB681A1DFA601B68BB60FB6859
:100160001A1DFA601B687B60FB681A1DFA601B6829
:100170003B60B9687A683B68081C111C1A1CFFF7C1
:10018000A9FFFA680F4B9A42E4D30FE0FB681A1DEF
:10019000FA601B687B60FB681A1DFA601B683B6095
:1001A0007A683B68101C191CFFF7B4FFFA68064B0D
:1001B0009A42EBD300F0E2FA00F0E4FBFEE7C0461F
:1001C000C0000000CC000000D400000080B500AFEB
:1001D000FEE7C04680B500AFFEE7C04680B500AF81
:1001E000FEE7C04680B500AFFEE7C04680B500AF71
:1001F000FEE7C04680B500AFFEE7C046FFFFFFFF49
:10020000FFFFFFFFFFFFFFFFFFFFFFFFFFFFFFFFFE
:10021000FFFFFFFFFFFFFFFFFFFFFFFFFFFFFFFFEE
:10022000FFFFFFFFFFFFFFFFFFFFFFFFFFFFFFFFDE
:10023000FFFFFFFFFFFFFFFFFFFFFFFFFFFFFFFFCE
:10024000FFFFFFFFFFFFFFFFFFFFFFFFFFFFFFFFBE
:10025000FFFFFFFFFFFFFFFFFFFFFFFFFFFFFFFFAE
:10026000FFFFFFFFFFFFFFFFFFFFFFFFFFFFFFFF9E
:10027000FFFFFFFFFFFFFFFFFFFFFFFFFFFFFFFF8E
:10028000FFFFFFFFFFFFFFFFFFFFFFFFFFFFFFFF7E
:10029000FFFFFFFFFFFFFFFFFFFFFFFFFFFFFFFF6E
:1002A000FFFFFFFFFFFFFFFFFFFFFFFFFFFFFFFF5E
:1002B000FFFFFFFFFFFFFFFFFFFFFFFFFFFFFFFF4E
:1002C000FFFFFFFFFFFFFFFFFFFFFFFFFFFFFFFF3E
:1002D000FFFFFFFFFFFFFFFFFFFFFFFFFFFFFFFF2E
:1002E000FFFFFFFFFFFFFFFFFFFFFFFFFFFFFFFF1E
:1002F000FFFFFFFFFFFFFFFFFFFFFFFFFFFFFFFF0E
:1003000080B582B000AF021CFB1D1A70064BFA1DAF
:100310001278111C1F220A400121081C9040021C67
:100320001A60BD4602B080BD00E100E090B583B028
:1003300000AF021CFB1D1A70084B084A5268F91DD9
:1003400009780120041C8C40211C05480143C94345
:100350000A405A60BD4603B090BDC04600800440CC
:1003600000E0FFFF80B582B000AF021CFB1D1A70D9
:10037000084BFA1D12780121081C9040021C111C28
:10038000044A5268D204D20C0A435A60BD4602B0F5
:1003900080BDC0460080044080B582B000AF021C22
:1003A000FB1D1A70FB1D1B78181CFFF7BFFFFB1D00
:1003B0001B78181CFFF7D6FFBD4602B080BDC046B3
:1003C00080B582B000AF78603960044B7A685E32E5
:1003D00092003968D150BD4602B080BD0080044013
:1003E00080B582B000AF021CFB1D1A70094AFB1DCC
:1003F0001B780121081C9840031C191C0548802308
:10040000C3581B031B0B19438023D150BD4602B0B8
:1004100080BDC0460080044080B582B000AF7860E7
:1004200039607B681B683A6804490A43D2431A4022
:100430007B681A60BD4602B080BDC04600FFFFFF6A
:1004400080B582B000AF786039607B683A689A60A6
:10045000BD4602B080BDC04680B582B000AF7860B6
:1004600039607B683A685A62BD4602B080BDC046BA
:1004700080B500AF0A20FFF7B3FF0720FFF78CFF1E
:10048000BD4680BD80B582B000AF021CFB1D1A7056
:10049000FB1D1B781B01034A9B18181CBD4602B0AC
:1004A00080BDC0460040004080B582B000AF78609B
:1004B00039607B683A681A60BD4602B080BDC046AC
:1004C00080B582B000AF78607B689A6806231340DD
:1004D00001221A437B689A60BD4602B080BDC046C7
:1004E00080B582B000AF78607B689A6806231A40B6
:1004F0007B689A60BD4602B080BDC04680B584B0BE
:1005000000AF78600A1CFB1C1A707B689A68012394
:100510001340FB60FB1C1A78FB681A437B689A60E7
:10052000BD4604B080BDC04680B582B000AF7860E3
:100530007B68DA680223134001221A437B68DA6081
:10054000BD4602B080BDC04680B500AF024AF82368
:10055000D358181CBD4680BD0040004080B582B015
:1005600000AF7860034AF8237968D150BD4602B0E5
:1005700080BDC0460040004090B587B000AFF86035
:10058000B9607A603B60A0231A06A0231906802375
:100590009B01C9583B680120041C9C40231C0B4351
:1005A0000121194380239B01D150A0231A06A023C7
:1005B000190680239B01C95880239B01D150A02399
:1005C0001A063B680121081C9840031C01210B43BB
:1005D000191C88239B01D150204ABC235B007968F9
:1005E000D1501F4B181C0121FFF716FF1C4B181C84
:1005F0000121FFF725FF00200321FFF7E1FE18206E
:10060000FFF77EFEFB681B01164A9B187B6100F01A
:100610005FF9031C181CB96800F0BBF9031C8022A9
:10062000120613437A69101C191CFFF73DFF7B6902
:10063000181C0021FFF762FF0B4B00221A607B6938
:10064000181CFFF771FF0A20FFF75AFE7B69181C80
:10065000FFF736FFBD4607B090BDC046008004409E
:10066000004000A0004000400000001080B582B0B3
:1006700000AFA0231A0688239B011021D1500E4BF6
:10068000181C0121FFF7E8FE0C4B1A680C4B1A608E
:100690000A4B00221A60FFF757FF031C7B607B6840
:1006A000181CFFF75BFFA0231A068A239B01102169
:1006B000D150BD4602B080BD004000A00400001033
:1006C0000000001080B582B000AF0D4B7B607B68EE
:1006D0005A680C4B1A60A0231A0688239B0110212C
:1006E000D150A0231A068A239B010121D150064B29
:1006F000181C0121FFF7B0FEBD4602B080BDC04608
:100700000040004004000010004000A080B582B00E
:1007100000AF00F039F8164A15498023CB588021E4
:1007200019438023D150134AE0235B000121494241
:10073000D1500620FFF754FEFFF79AFE00237B609E
:100740000BE07B68DBB2181CFFF79CFE031C181C37
:10075000FFF7C6FE7B6801337B607B68032BF0DD0F
:10076000054B0020191C03220423FFF705FFFEE7B9
:100770000080044000C0004050C3000080B500AFBE
:1007800000F0D6F8BD4680BD08B50D4B24229A6016
:100790008E2292009958802081439950D868012177
:1007A000074A0842FAD00320106751675A6FD107F1
:1007B000FCD5034B02229A6700F004F808BDC0463E
:1007C0000080044008B500F083F8014B186008BDB4
:1007D0000800001008B5C205120F1F210140920049
:1007E000034BD0580131490000F0D3F808BDC04692
:1007F000100A00001F231840013048437047C046CC
:10080000034B186400225A6401225A647047C046A0
:1008100000800440034B186700225A6701225A6780
:100820007047C0460080044008B5034B586AC005B5
:10083000C00DFFF7CFFF08BD00800440094B1A6CC4
:1008400003231340012B05D0032B06D0002B07D127
:10085000054806E0054B186803E0054B186800E002
:100860000020704700800440001BB700080A000009
:100870000C0A000010B5054B9B687F241C40FFF755
:10088000DDFF011C201CFFF7B5FF10BD00800440F8
:1008900008B50D4B1A6F03231340012B09D002DC5E
:1008A000002B0FD003E0022B06D0032B07D0002033
:1008B00009E0FFF7C3FF06E0FFF7B6FF03E0FFF72D
:1008C000D9FF00E0014808BD00800440001BB700CC
:1008D00008B5FFF7DDFF034B9B6FFF21194000F0C8
:1008E00058F808BD0080044008B5022000F036F832
:1008F0000020FFF785FF0C4B1A6901221A61802046
:1009000000F01AF84122094B9A60802000F026F886
:1009100006490122CB681A42FCD00122034B9A6798
:100920000320FFF777FF08BD00000440008004406B
:1009300008B5FFF7D9FF08BD054A8E239B00D158A3
:1009400008430449084004490843D0507047C04652
:1009500000800440EF800000106D000010B5064AD2
:100960008E239B00D45805490C4001408C43211C28
:1009700003480143D15010BD00800440EF800000C7
:10098000106D000008B5FFF7C1FE08BD03000B4362
:1009900021D4002931D00122D207030901E0090145
:1009A00012099942FBD9430801E0490052089942D3
:1009B000FBD900E04908401A07D35241FAD3014657
:1009C0001046704749084018F7D29218FAD34018D9
:1009D000014610467047CB0F00D04942021000D5A7
:1009E0004042534008B5FFF7D4FF0CBC521000D36F
:1009F0004042002A00D549421847F446002000F042
:100A000001F8604770470000001BB70000000000BD
:100A100000000000C027090090051000C05C150010
:100A2000F0B31A00200B2000009F2400E0322900C0
:100A3000C0C62D0050973100E0673500703839008E
:100A400000093D004016400080234300C0304600AE
:0400000300000149AF
:00000001FF
