:1000000015C02CC02BC02AC029C028C027C026C0BC
:1000100025C024C023C022C021C020C01FC01EC0D4
:100020001DC01CC01BC01AC019C0910011241FBEE6
:10003000CFEDCDBF20E0A0E6B0E001C01D92A2361A
:10004000B207E1F710E0CCE2D0E003C02297FE0156
:1000500076D0CA32D107D1F72ED075C0D1CFCF9389
:10006000DF93CDB7DD27C350CDBF9A8389836B83E0
:1000700089819A812B81FC012083CD5FCDBFDF91E7
:10008000CF910895CF93DF9300D0CDB7DD279A832A
:10009000898388E390E028E330E0F90140812981F9
:1000A0003A81F90120812427FC012083CE5FCDBF56
:1000B000DF91CF910895CF93DF93CDB7DD2788E10E
:1000C0000FB6F89481BD11BC0FBE80E690E0DADF78
:1000D00081E690E0D7DF80E690E0DBDFF6CFCF93DC
:1000E000DF93CDB7DD27C450CDBF9A8389837C834E
:1000F0006B8389819A818130910571F48B819C8118
:100100008F3F2FEF920741F46FE080E690E0A7DF8A
:1001100060EF81E690E0A3DFCC5FCDBFDF91CF91B0
:100120000895CF93DF93CDB7DD276FEF7FEF81E0A9
:1001300090E0D5DFDF91CF910895EE0FFF1F05907E
:0A014000F491E02D0994F894FFCF2C
:00000001FF
