:1000000000040010ED000000D5000000D900000041
:1000100000000000000000000000000000000000E0
:10002000000000000000000000000000DD000000F3
:100030000000000000000000E1000000E5000000FA
:10004000E9000000E90000000000000009060000CF
:10005000E9000000E90000000000000000000000CE
:10006000E9000000C1040000E9000000E900000010
:10007000E9000000E900000000000000E9000000C5
:100080000000000000000000000000000000000070
:100090000000000000000000000000000000000060
:1000A000E9000000E9000000E9000000E9000000AC
:1000B000E9000000E9000000E9000000E90000009C
:1000C0005C0F000000010010100000001001001083
:1000D00034000000FEE7C046FEE7C046FEE7C0462B
:1000E000FEE7C046FEE7C046FEE7C04670B5174CC7
:1000F000174DAC420ED2206861680C34231F1A6879
:100100000023002AF5D01E585E5004339A42FAD8D4
:10011000AC42F0D30F4A944213D2231C0833D51DAE
:10012000ED1AED08ED005D190021626820680023DA
:10013000002A03D0195004339A42FBD80834AC4249
:10014000F3D100F0E3F900F043FDFEE7C00000004A
:10015000CC000000D400000010B50023002A04D019
:100160001C585C5004339A42FAD810BD0023002278
:10017000002903D01A5004339942FBD87047C04677
:10018000FFFFFFFFFFFFFFFFFFFFFFFFFFFFFFFF7F
:10019000FFFFFFFFFFFFFFFFFFFFFFFFFFFFFFFF6F
:1001A000FFFFFFFFFFFFFFFFFFFFFFFFFFFFFFFF5F
:1001B000FFFFFFFFFFFFFFFFFFFFFFFFFFFFFFFF4F
:1001C000FFFFFFFFFFFFFFFFFFFFFFFFFFFFFFFF3F
:1001D000FFFFFFFFFFFFFFFFFFFFFFFFFFFFFFFF2F
:1001E000FFFFFFFFFFFFFFFFFFFFFFFFFFFFFFFF1F
:1001F000FFFFFFFFFFFFFFFFFFFFFFFFFFFFFFFF0F
:10020000FFFFFFFFFFFFFFFFFFFFFFFFFFFFFFFFFE
:10021000FFFFFFFFFFFFFFFFFFFFFFFFFFFFFFFFEE
:10022000FFFFFFFFFFFFFFFFFFFFFFFFFFFFFFFFDE
:10023000FFFFFFFFFFFFFFFFFFFFFFFFFFFFFFFFCE
:10024000FFFFFFFFFFFFFFFFFFFFFFFFFFFFFFFFBE
:10025000FFFFFFFFFFFFFFFFFFFFFFFFFFFFFFFFAE
:10026000FFFFFFFFFFFFFFFFFFFFFFFFFFFFFFFF9E
:10027000FFFFFFFFFFFFFFFFFFFFFFFFFFFFFFFF8E
:10028000FFFFFFFFFFFFFFFFFFFFFFFFFFFFFFFF7E
:10029000FFFFFFFFFFFFFFFFFFFFFFFFFFFFFFFF6E
:1002A000FFFFFFFFFFFFFFFFFFFFFFFFFFFFFFFF5E
:1002B000FFFFFFFFFFFFFFFFFFFFFFFFFFFFFFFF4E
:1002C000FFFFFFFFFFFFFFFFFFFFFFFFFFFFFFFF3E
:1002D000FFFFFFFFFFFFFFFFFFFFFFFFFFFFFFFF2E
:1002E000FFFFFFFFFFFFFFFFFFFFFFFFFFFFFFFF1E
:1002F000FFFFFFFFFFFFFFFFFFFFFFFFFFFFFFFF0E
:1003000070B582B043006A46051C0E1C0020012116
:10031000137000F0B3F93221532D00D90F21114C85
:100320006B46201C197000F0C7F90F4BC0221E70DD
:100330000E4B52001A600E4AF023D058012101439F
:10034000D1500C4B802292001A607F231D400A4B33
:100350006D00E95E201C00F029FA201C00F02EFA46
:1003600002B070BD04010010150100101001001052
:100370000040005000E100E0140E0000F0B55F46C0
:10038000564644464D46F0B483B000F02DFA3C4941
:100390008023CA583B481A43CA503B4A0124106084
:1003A0003A486442D0603A4810613A489061E0208F
:1003B00040001450CA589A43CA5000F02FF9364CE6
:1003C0003649201C00F09EF9201C00F069F902213A
:1003D000334800F09FF8002000F0CAF8314B324A51
:1003E0002F481A6000F0CAF830490123304C314FD1
:1003F000314E8B469A4600F0C7F82378002BFAD08E
:100400003B8851465A08194236D159460878FA2590
:10041000AD003A8068437F21914600F0DDFB8046C5
:100420003068C0216843490000F0D9FB326880235E
:10043000051C5B009A421CD9336880204042C01AD8
:10044000C0B2414640B24843FA21890000F0C4FBE3
:10045000FA2140B28900684300F0BEFB6B467F3052
:100460001870012103206A4600F008F90023237068
:10047000C1E74B46D8B2E4E7104B5A4092B2C4E70A
:1004800000800440FF00FFFF00C00040FFFFFF05A9
:1004900004FF03FFFFFFFF020401001000002944D6
:1004A000004006401C01001001030000150100106F
:1004B00014010010000100101001001000B4FFFF33
:1004C0000E4B1A68002A11D10D4AF023D158012091
:1004D0008143D15080210B4A89008023D150084AA2
:1004E000F423D05801210143D1507047064A01211D
:1004F00011701A68013A1A60F1E7C0461001001045
:100500000040005000E100E01401001008B500F0C8
:100510008BFA08BD38B5104B0125041C1D6000F096
:10052000BFFA23687C229343042213432360201CD8
:100530000A4900F0E9FA2A1C09490A23094800F08F
:10054000EDF9094B00221A705A709A70DA70074B55
:100550000822E5601A6038BD94800440127A0000D9
:10056000200100102C0100101701001000E100E034
:10057000014B18707047C046160100100368012235
:10058000134303607047000037B500246D46EC71DB
:100590000735184818492A1C012300F0E7FAA04241
:1005A00027D02978154B4AB2A2420CDA144A0F2000
:1005B000127819705C709C70DC7001408A4216D110
:1005C00001225A7013E05A78002A10D09A7801322A
:1005D000D2B29A70D00701D5D97008E01A78902A63
:1005E00005D1084A1268002A01D0D8789047FFF751
:1005F000CBFF37BD004006402C0100101701001052
:10060000160100101C01001008B50248024900F054
:1006100099FA08BD004006402C01001038B5134B74
:1006200080211A1DD06F09010143D1675A68012545
:10063000AA435A605A680E4C2A435A609223AB4030
:100640002360201C0B4900F0DDF980B26062A368D2
:100650003C221343A360201C0F21002200F0DAF992
:1006600023682B432360044B1D6038BD0080044089
:100670000080054040420F0000E100E013780902CD
:1006800019434002014389B2044B9A689007FBD595
:10069000A7200005084398617047C04600800540C8
:1006A0000378002B04D1034B04215A688A435A6013
:1006B0007047C04600400050F8B5051C0C1C00F007
:1006C00023F92F786E68032F18D80123632C10D8D4
:1006D00000F073FB311C00F0BDFA00F02BFB061C90
:1006E000431C002C05D0201C7043642100F077FAD5
:1006F000331A8137024ABF00BB502C72F8BDC04686
:100700000040005070B5224C051C201C0E1C00F04F
:1007100065F90123236007232365301C002100F0C5
:1007200052FB002801D0FE26B60500F0EDF800F0DF
:1007300044FB311C00F08EFA00F0FCFA154B002649
:100740001E80154B8022586080239B00E050C123FF
:1007500052019B00E2500122C02352429B00E25012
:100760000E4A01232381A3500D4A0E49A350C322F0
:100770009200A150C2229200A350A0230222DB00CB
:10078000E250281C3221FFF797FF074BDE8770BD30
:10079000004000504C400050FC4000500405000058
:1007A0000C05000001100000064000500278024BCA
:1007B00080329200D15070470040005010B5041CA8
:1007C00000F0A2F82278074B80329200D15800F056
:1007D00006FA00F0F2FA217A6060201CFFF76CFF45
:1007E00010BDC0460040005008B500F08DF8014B28
:1007F000186008BD4001001008B5C205120F1F2186
:1008000001409200034BD0580131490000F0E7F954
:1008100008BDC0461C0F00001F231840013048438C
:100820007047C046034B186400225A6401225A6480
:100830007047C04600800440034B186700225A6787
:1008400001225A677047C04600800440054BE022F1
:100850009850E4220020985001209850E8229950A6
:100860007047C0460080044008B5024B586AFFF745
:10087000C3FF08BD00800440094B1A6C03231340DA
:10088000012B05D0032B06D0002B07D1054806E02D
:10089000054B186803E0054B186800E0002070471E
:1008A00000800440001BB700140F0000180F000068
:1008B00010B5044B9C68FFF7DFFF011C201CFFF7FD
:1008C000ABFF10BD0080044008B50D4B1A6F032329
:1008D0001340012B09D002DC002B0FD003E0022BC8
:1008E00006D0032B07D0002009E0FFF7C5FF06E084
:1008F000FFF7BAFF03E0FFF7DBFF00E0014808BDA8
:1009000000800440001BB70008B5FFF7DDFF024B75
:10091000996F00F064F908BD0080044001604360F5
:10092000826000230361C3600120704738B5041C56
:100930000568C2680369D21A43689A420DDA013B1E
:10094000C26813408268101C5843281800F03CF914
:10095000E3680133E360012000E0002038BDC046B9
:10096000F8B5041C0F1C0168C3680069834232D0CB
:10097000E0682369C01A6668731E25692B401D183C
:10098000B54201D3F61A00E0061C801B151EB542C5
:1009900000DD351C561B864200DD061CA268534351
:1009A000C9186A43381C00F00FF92269AB1823619B
:1009B000616801390B40A268111C5943236859181A
:1009C000101C68433818724300F0FEF8226993192E
:1009D0002361A81900E00020F8BDC046074B802124
:1009E000585880225200104358505868044901401A
:1009F000596059680A435A607047C04600800440F5
:100A0000FFFEFFFF10B50C1CFFF77EFF211C00F05E
:100A1000E6F810BD012A03D1C3681943C16002E0A2
:100A2000036919430161704708B5022000F0B8F866
:100A30000020FFF7F7FE104B1A6903218A430121BA
:100A40000A431A61802000F099F841220B4B9A600A
:100A5000802000F0A5F809490122CB681A42FCD099
:100A60000122064B9A670320FFF7E6FE03200121CF
:100A7000FFF7ECFE08BDC0460000044000800440C3
:100A8000054B984204D0054B984203D10F2002E059
:100A90000E2000E010207047004006400080064015
:100AA00038B5041CFFF7ECFF144A8023D158012508
:100AB0008540281C0843D050114B9C4208D1131C80
:100AC000516808229143596059680A435A6013E0FB
:100AD0000C4B9C4208D1094B596810229143596034
:100AE00059680A435A6007E0044B59682022914331
:100AF000596059680A435A6038BDC04600800440B6
:100B00000040064000800640F8B5071C0E1CFFF7A9
:100B1000DBFE051C310100F062F8041C4643310184
:100B20006D1A2802401B00F05AF8013C3C62044B4D
:100B3000FF22F0215A500240F4215A50F8BDC0461D
:100B400000800440F0B583B0041C0F1C01266D46E4
:100B5000073505E063692B70381C291CFFF7E6FE9A
:100B6000A3681E42F6D103B0F0BDC04608B5081C0C
:100B7000111C1A1CFFF7F4FE08BDC046054A8E235F
:100B80009B00D15808430449084004490843D05009
:100B90007047C04600800440EF800000106D0000E8
:100BA00010B5064A8E239B00D45805490C400140DD
:100BB0008C43211C03480143D15010BD00800440E8
:100BC000EF800000106D000008B500F00CF908BDC2
:100BD00008B5FFF7D3FB08BD03000B4321D4002960
:100BE00031D00122D207030901E00901120999421B
:100BF000FBD9430801E0490052089942FBD900E0C3
:100C00004908401A07D35241FAD3014610467047AB
:100C100049084018F7D29218FAD3401801461046F6
:100C20007047CB0F00D04942021000D540425340DC
:100C300008B5FFF7D4FF0CBC521000D34042002A85
:100C400000D549421847F446002000F001F86047FB
:100C50007047000070B5C20DFF2422404BD0A24265
:100C600049D0CB0D234046D0A34244D00E1C802552
:100C7000D41A2D060B024640000228431D436B0880
:100C8000013B42089A4202DA211C7D3102E0211C1C
:100C900052107E31F00FC0015200D41A00D4221C31
:100CA0005200D41A00D4221C5200D41A00D4221CA0
:100CB0005200D41A00D4221C5200D41A00D4221C90
:100CC0005200D41A00D4221C940620433F24A2438D
:100CD0001A24E0410402DFD55200D31ADB43DB0FB4
:100CE000C018FD2902D8C90540181FE0C00FC00771
:100CF000002914DA1AE0FF2544002D06AC4214D86E
:100D00004A00AA4211D80B1C03435B001B0E0CD0F7
:100D10004840C00FC007230E08D0AA4203D0FF23CB
:100D2000DB05184302E0944200D1014870BDC04683
:100D30000000C07F8022C30D010212069E201143D5
:100D4000C01A02D4C140081C06E0FE2B02D90020C4
:100D5000914201D1180A0138704700282BD0030CAA
:100D600001D1000402E080231B05C918030E01D144
:100D7000000202E08023DB04C918030F01D1000147
:100D800002E080239B04C918830F01D1800002E098
:100D900080235B04C918002801DB400002E08023A7
:100DA0001B04C918803003125918000601D1012311
:100DB0009943081C00E00020704708B58021C90550
:100DC000FFF7CBFF08BD031C884205D080221943E2
:100DD00000201206914205D1FF225B00002012067E
:100DE0009A42404170478446830708D18B0706D159
:100DF000131F04D304C904C0043BFBD21A1D524282
:100E000005D0891A801A8B5C83540132FBD160466D
:100E100070470000330B920AFA096B09E308640873
:100E2000EB0779070E07A9064906EF05990549055D
:100E3000FD04B50472043204F603BD0387035403B2
:100E40002403F702CD02A4027E025B0239021902DA
:100E5000FB01DE01C301AA0192017C01660152017E
:100E60003F012D011C010C01FD00EF00E200D50047
:100E7000C900BE00B300A900A00097008E00860044
:100E80007F00780071006B0065005F005A0055001C
:100E900050004B00470043003F003C003800350045
:100EA000320035002D002A002800260024002200F0
:100EB00020001E001C001B00190018001600150061
:100EC000140013001200110010000F000E000D009E
:100ED0000D000C000B000B000A00090009000800BF
:100EE00008000700070007000600060006000500CE
:100EF00005000500040004000400040004000300D1
:100F000003000300030003000200020002000200CD
:100F100002000200001BB7000000000000000000FB
:100F2000C027090090051000C05C1500F0B31A003E
:100F3000200B2000009F2400E0322900C0C62D00B5
:100F400050973100E06735007038390000093D00E6
:0C0F50004016400080234300C0304600E3
:100F5C00E1AC0000000000000000A04132000000E5
:04000003000000ED0C
:00000001FF
