:100000000004001003010000D5000000D70000002C
:1000100000000000000000000000000000000000E0
:10002000000000000000000000000000D9000000F7
:100030000000000000000000DB000000DD00000008
:10004000DF000000DF00000000000000B906000033
:10005000DF000000DF0000000000000000000000E2
:10006000DF00000005040000DF000000DF000000EA
:10007000DF000000DF00000000000000DF000000E3
:100080000000000000000000000000000000000070
:100090000000000000000000000000000000000060
:1000A000DF000000DF000000DF000000DF000000D4
:1000B000DF000000DF000000DF000000DF000000C4
:1000C000900F00000001001018000000180100103F
:1000D00038000000FEE7FEE7FEE7FEE7FEE7FEE78A
:1000E00010B50023934203D21C585C500433F9E747
:1000F00010BD00238B4203D200221A500433F9E7CB
:10010000704710B50C4C0D4B9C4207D220686168BB
:100110000C34231F1A68FFF7E3FFF4E7084B9C42F7
:1001200005D220686168FFF7E4FF0834F6E700F0C5
:1001300021FA00F0A5FDFEE7C0000000CC000000A1
:10014000D4000000FFFFFFFFFFFFFFFFFFFFFFFFE7
:10015000FFFFFFFFFFFFFFFFFFFFFFFFFFFFFFFFAF
:10016000FFFFFFFFFFFFFFFFFFFFFFFFFFFFFFFF9F
:10017000FFFFFFFFFFFFFFFFFFFFFFFFFFFFFFFF8F
:10018000FFFFFFFFFFFFFFFFFFFFFFFFFFFFFFFF7F
:10019000FFFFFFFFFFFFFFFFFFFFFFFFFFFFFFFF6F
:1001A000FFFFFFFFFFFFFFFFFFFFFFFFFFFFFFFF5F
:1001B000FFFFFFFFFFFFFFFFFFFFFFFFFFFFFFFF4F
:1001C000FFFFFFFFFFFFFFFFFFFFFFFFFFFFFFFF3F
:1001D000FFFFFFFFFFFFFFFFFFFFFFFFFFFFFFFF2F
:1001E000FFFFFFFFFFFFFFFFFFFFFFFFFFFFFFFF1F
:1001F000FFFFFFFFFFFFFFFFFFFFFFFFFFFFFFFF0F
:10020000FFFFFFFFFFFFFFFFFFFFFFFFFFFFFFFFFE
:10021000FFFFFFFFFFFFFFFFFFFFFFFFFFFFFFFFEE
:10022000FFFFFFFFFFFFFFFFFFFFFFFFFFFFFFFFDE
:10023000FFFFFFFFFFFFFFFFFFFFFFFFFFFFFFFFCE
:10024000FFFFFFFFFFFFFFFFFFFFFFFFFFFFFFFFBE
:10025000FFFFFFFFFFFFFFFFFFFFFFFFFFFFFFFFAE
:10026000FFFFFFFFFFFFFFFFFFFFFFFFFFFFFFFF9E
:10027000FFFFFFFFFFFFFFFFFFFFFFFFFFFFFFFF8E
:10028000FFFFFFFFFFFFFFFFFFFFFFFFFFFFFFFF7E
:10029000FFFFFFFFFFFFFFFFFFFFFFFFFFFFFFFF6E
:1002A000FFFFFFFFFFFFFFFFFFFFFFFFFFFFFFFF5E
:1002B000FFFFFFFFFFFFFFFFFFFFFFFFFFFFFFFF4E
:1002C000FFFFFFFFFFFFFFFFFFFFFFFFFFFFFFFF3E
:1002D000FFFFFFFFFFFFFFFFFFFFFFFFFFFFFFFF2E
:1002E000FFFFFFFFFFFFFFFFFFFFFFFFFFFFFFFF1E
:1002F000FFFFFFFFFFFFFFFFFFFFFFFFFFFFFFFF0E
:1003000013B5084C23785AB2904209D16A46DB43B0
:10031000073200200121137000F008FAFF23237038
:1003200013BDC04608010010F0B5274B85B06C46E0
:100330000F3418707F231B1A221C051C019100200A
:100340000121237000F0F2F9281C432100F09FFCEA
:10035000CEB2301C0C2100F09AFC0621C0B200F095
:1003600096FC281CCFB20C2100F091FC174B012009
:10037000DB5D221C59182170002100F0D7F93221D1
:10038000532D00D90F212170114C201C00F0ECF9E5
:100390000198104BC02218700F4B52001A600F4B7F
:1003A00001211A680A431A600D4B802292001A60DC
:1003B0000C4B7200D15E201C00F050FA201C00F0A3
:1003C00055FA05B0F0BDC04608010010020100104A
:1003D0000C0100101D01001018010010F040005029
:1003E00000E100E0C20E0000044B19884A08C8076B
:1003F00001D503494A401A8018887047000100104F
:1004000000B4FFFF0C4B01221968002905D00B49ED
:100410000A701A68013A1A6007E0094B196891439B
:1004200019608022074B9200DA67074B01211A6896
:100430000A431A607047C046180100101C010010E2
:10044000F040005004E100E0F4400050F7B5FFF741
:10045000CBFF194B071CFA251878AD0068437F21A4
:1004600000F012FC154C061C2068C02168434900AE
:1004700000F00DFC22688023051C5B009A4203D922
:10048000236880277F42FF1AFFB27FB2301CFA2117
:100490007843890000F0F8FBFA2140B268438900F4
:1004A00000F0F2FB6C467F30E0710734032001213D
:1004B000221C00F03BF9F7BD1D01001018010010CF
:1004C00010B500F05BF81D4A8021D36F1C480B4328
:1004D000D3671C4B012418601B486442D8601B483A
:1004E00018611B489861E02040001C50D36F8B437B
:1004F000D36700F0EBF8174C1749201C00F05AF9AD
:10050000201C00F025F91548022100F055F80020C4
:1005100000F080F8124A134B10481A60124A134B2D
:100520001A6000F07DF800F081F8114C2378002B60
:10053000F9D0FFF78BFF00232370F4E70480044019
:10054000FF00FFFF00C00040FFFFFF0504FF03FFA7
:10055000FFFFFF020C010010004053440040064022
:1005600029030000280100100103000024010010ED
:100570001C01001008B500F0AFFA08BD08B50D4B1E
:1005800024229A608E2292009958802081439950AB
:10059000D8680121074A0842FAD003201067516742
:1005A0005A6FD107FCD5034B02229A6700F074F909
:1005B00008BDC0460080044038B5104B0125041C1E
:1005C0001D6000F0C5FA23687C2293430422134384
:1005D0002360201C0A4900F0EFFA2A1C09490A236B
:1005E000094800F0F3F9094B00221A705A709A700A
:1005F000DA70074B0822E5601A6038BD9480044029
:10060000127A00002C010010380100101F010010A8
:1006100000E100E0014B18707047C0461E01001059
:1006200003680122134303607047000037B50024BC
:100630006D46EC7107351A481A492A1C012300F04F
:10064000EDFAA0422BD02978174B4AB2A2420CDA1D
:10065000164A0F20127819705C709C70DC70014093
:100660008A421AD101225A7017E05A78002A14D00F
:100670009A780132D2B29A70D00701D5D9700CE0C5
:100680001A78802A03D0902A07D1094A00E0094A43
:100690001268002A01D0D8789047FFF7C7FF37BD0E
:1006A00000400640380100101F0100101E0100101C
:1006B000280100102401001008B50248024900F08A
:1006C00099FA08BD004006403801001038B5134BB8
:1006D00080211A1DD06F09010143D1675A68012595
:1006E000AA435A605A680E4C2A435A609223AB4080
:1006F0002360201C0B4900F0DDF980B26062A36822
:100700003C221343A360201C0F21002200F0DAF9E1
:1007100023682B432360044B1D6038BD00800440D8
:100720000080054040420F0000E100E0137809021C
:1007300019434002014389B2044B9A689007FBD5E4
:10074000A7200005084398617047C0460080054017
:100750000378002B04D1034B04215A688A435A6062
:100760007047C04600400050F8B5051C0C1C00F056
:1007700023F92F786E68032F18D80123632C10D823
:1007800000F073FB311C00F0BDFA00F02BFB061CDF
:10079000431C002C05D0201C7043642100F077FA24
:1007A000331A8137024ABF00BB502C72F8BDC046D5
:1007B0000040005070B5224C051C201C0E1C00F09F
:1007C00065F90123236007232365301C002100F015
:1007D00052FB002801D0FE26B60500F0EDF800F02F
:1007E00044FB311C00F08EFA00F0FCFA154B002699
:1007F0001E80154B8022586080239B00E050C1234F
:1008000052019B00E2500122C02352429B00E25061
:100810000E4A01232381A3500D4A0E49A350C3223F
:100820009200A150C2229200A350A0230222DB001A
:10083000E250281C3221FFF797FF074BDE8770BD7F
:10084000004000504C400050FC40005004050000A7
:100850000C05000001100000064000500278024B19
:1008600080329200D15070470040005010B5041CF7
:1008700000F0A2F82278074B80329200D15800F0A5
:1008800006FA00F0F2FA217A6060201CFFF76CFF94
:1008900010BDC0460040005008B500F08DF8014B77
:1008A000186008BD4C01001008B5C205120F1F21C9
:1008B00001409200034BD0580131490000F0E7F9A4
:1008C00008BDC046500F00001F23184001304843A8
:1008D0007047C046034B186400225A6401225A64D0
:1008E0007047C04600800440034B186700225A67D7
:1008F00001225A677047C04600800440054BE02241
:100900009850E4220020985001209850E8229950F5
:100910007047C0460080044008B5024B586AFFF794
:10092000C3FF08BD00800440094B1A6C0323134029
:10093000012B05D0032B06D0002B07D1054806E07C
:10094000054B186803E0054B186800E0002070476D
:1009500000800440001BB700480F00004C0F00004F
:1009600010B5044B9C68FFF7DFFF011C201CFFF74C
:10097000ABFF10BD0080044008B50D4B1A6F032378
:100980001340012B09D002DC002B0FD003E0022B17
:1009900006D0032B07D0002009E0FFF7C5FF06E0D3
:1009A000FFF7BAFF03E0FFF7DBFF00E0014808BDF7
:1009B00000800440001BB70008B5FFF7DDFF024BC5
:1009C000996F00F064F908BD008004400160436045
:1009D000826000230361C3600120704738B5041CA6
:1009E0000568C2680369D21A43689A420DDA013B6E
:1009F000C26813408268101C5843281800F03CF964
:100A0000E3680133E360012000E0002038BDC04608
:100A1000F8B5041C0F1C0168C3680069834232D01A
:100A2000E0682369C01A6668731E25692B401D188B
:100A3000B54201D3F61A00E0061C801B151EB54214
:100A400000DD351C561B864200DD061CA2685343A0
:100A5000C9186A43381C00F00FF92269AB182361EA
:100A6000616801390B40A268111C59432368591869
:100A7000101C68433818724300F0FEF8226993197D
:100A80002361A81900E00020F8BDC046074B802173
:100A90005858802252001043585058680449014069
:100AA000596059680A435A607047C0460080044044
:100AB000FFFEFFFF10B50C1CFFF77EFF211C00F0AE
:100AC000E6F810BD012A03D1C3681943C16002E0F2
:100AD000036919430161704708B5022000F0B8F8B6
:100AE0000020FFF7F7FE104B1A6903218A4301210A
:100AF0000A431A61802000F099F841220B4B9A605A
:100B0000802000F0A5F809490122CB681A42FCD0E8
:100B10000122064B9A670320FFF7E6FE032001211E
:100B2000FFF7ECFE08BDC046000004400080044012
:100B3000054B984204D0054B984203D10F2002E0A8
:100B40000E2000E010207047004006400080064064
:100B500038B5041CFFF7ECFF144A8023D158012557
:100B60008540281C0843D050114B9C4208D1131CCF
:100B7000516808229143596059680A435A6013E04A
:100B80000C4B9C4208D1094B596810229143596083
:100B900059680A435A6007E0044B59682022914380
:100BA000596059680A435A6038BDC0460080044005
:100BB0000040064000800640F8B5071C0E1CFFF7F9
:100BC000DBFE051C310100F062F8041C46433101D4
:100BD0006D1A2802401B00F05AF8013C3C62044B9D
:100BE000FF22F0215A500240F4215A50F8BDC0466D
:100BF00000800440F0B583B0041C0F1C01266D4634
:100C0000073505E063692B70381C291CFFF7E6FEE9
:100C1000A3681E42F6D103B0F0BDC04608B5081C5B
:100C2000111C1A1CFFF7F4FE08BDC046054A8E23AE
:100C30009B00D15808430449084004490843D05058
:100C40007047C04600800440EF800000106D000037
:100C500010B5064A8E239B00D45805490C4001402C
:100C60008C43211C03480143D15010BD0080044037
:100C7000EF800000106D000008B500F00CF908BD11
:100C800008B5FFF71DFC08BD03000B4321D4002964
:100C900031D00122D207030901E00901120999426A
:100CA000FBD9430801E0490052089942FBD900E012
:100CB0004908401A07D35241FAD3014610467047FB
:100CC00049084018F7D29218FAD340180146104646
:100CD0007047CB0F00D04942021000D5404253402C
:100CE00008B5FFF7D4FF0CBC521000D34042002AD5
:100CF00000D549421847F446002000F001F860474B
:100D00007047000070B5C20DFF2422404BD0A242B4
:100D100049D0CB0D234046D0A34244D00E1C8025A1
:100D2000D41A2D060B024640000228431D436B08CF
:100D3000013B42089A4202DA211C7D3102E0211C6B
:100D400052107E31F00FC0015200D41A00D4221C80
:100D50005200D41A00D4221C5200D41A00D4221CEF
:100D60005200D41A00D4221C5200D41A00D4221CDF
:100D70005200D41A00D4221C940620433F24A243DC
:100D80001A24E0410402DFD55200D31ADB43DB0F03
:100D9000C018FD2902D8C90540181FE0C00FC007C0
:100DA000002914DA1AE0FF2544002D06AC4214D8BD
:100DB0004A00AA4211D80B1C03435B001B0E0CD047
:100DC0004840C00FC007230E08D0AA4203D0FF231B
:100DD000DB05184302E0944200D1014870BDC046D3
:100DE0000000C07F8022C30D010212069E20114325
:100DF000C01A02D4C140081C06E0FE2B02D9002014
:100E0000914201D1180A0138704700282BD0030CF9
:100E100001D1000402E080231B05C918030E01D193
:100E2000000202E08023DB04C918030F01D1000196
:100E300002E080239B04C918830F01D1800002E0E7
:100E400080235B04C918002801DB400002E08023F6
:100E50001B04C918803003125918000601D1012360
:100E60009943081C00E00020704708B58021C9059F
:100E7000FFF7CBFF08BD031C884205D08022194331
:100E800000201206914205D1FF225B0000201206CD
:100E90009A42404170478446830708D18B0706D1A8
:100EA000131F04D304C904C0043BFBD21A1D5242D1
:100EB00005D0891A801A8B5C83540132FBD16046BD
:100EC0007047FE0D350D770CC40B1B0B7C0AE50932
:100ED0005709D0085208DA076907FF069A063B0649
:100EE000E2058D053D05F204AB0468042804ED031A
:100EF000B4037F034D031D03F002C6029E02780275
:100F0000550233021402F601DA01BF01A6018E0177
:100F1000780163014F013C012A0119010901FA001E
:100F2000EC00DF00D200C700BB00B100A7009D00AD
:100F300094008C0084007D0076006F0069006300DF
:100F40005D00580053004E00001BB7000000000079
:100F500000000000C027090090051000C05C1500CB
:100F6000F0B31A00200B2000009F2400E03229007B
:100F7000C0C62D0050973100E06735007038390049
:100F800000093D004016400080234300C030460069
:100F9000E1AC828294A9BCD3FF00000000000000F5
:080FA0000000A0413200000036
:0400000300000103F5
:00000001FF
