:100000000004001003010000D5000000D70000002C
:1000100000000000000000000000000000000000E0
:10002000000000000000000000000000D9000000F7
:100030000000000000000000DB000000DD00000008
:10004000DF000000DF000000000000005507000096
:10005000DF000000DF0000000000000000000000E2
:10006000DF0000001D040000DF000000DF000000D2
:10007000DF000000DF00000000000000DF000000E3
:100080000000000000000000000000000000000070
:100090000000000000000000000000000000000060
:1000A000DF000000DF000000DF000000DF000000D4
:1000B000DF000000DF000000DF000000DF000000C4
:1000C0003C0F000000010010180000001801001093
:1000D0003C000000FEE7FEE7FEE7FEE7FEE7FEE786
:1000E00010B50023934203D21C585C500433F9E747
:1000F00010BD00238B4203D200221A500433F9E7CB
:10010000704710B50C4C0D4B9C4207D220686168BB
:100110000C34231F1A68FFF7E3FFF4E7084B9C42F7
:1001200005D220686168FFF7E4FF0834F6E700F0C5
:1001300081F900F089FDFEE7C0000000CC0000005E
:10014000D4000000FFFFFFFFFFFFFFFFFFFFFFFFE7
:10015000FFFFFFFFFFFFFFFFFFFFFFFFFFFFFFFFAF
:10016000FFFFFFFFFFFFFFFFFFFFFFFFFFFFFFFF9F
:10017000FFFFFFFFFFFFFFFFFFFFFFFFFFFFFFFF8F
:10018000FFFFFFFFFFFFFFFFFFFFFFFFFFFFFFFF7F
:10019000FFFFFFFFFFFFFFFFFFFFFFFFFFFFFFFF6F
:1001A000FFFFFFFFFFFFFFFFFFFFFFFFFFFFFFFF5F
:1001B000FFFFFFFFFFFFFFFFFFFFFFFFFFFFFFFF4F
:1001C000FFFFFFFFFFFFFFFFFFFFFFFFFFFFFFFF3F
:1001D000FFFFFFFFFFFFFFFFFFFFFFFFFFFFFFFF2F
:1001E000FFFFFFFFFFFFFFFFFFFFFFFFFFFFFFFF1F
:1001F000FFFFFFFFFFFFFFFFFFFFFFFFFFFFFFFF0F
:10020000FFFFFFFFFFFFFFFFFFFFFFFFFFFFFFFFFE
:10021000FFFFFFFFFFFFFFFFFFFFFFFFFFFFFFFFEE
:10022000FFFFFFFFFFFFFFFFFFFFFFFFFFFFFFFFDE
:10023000FFFFFFFFFFFFFFFFFFFFFFFFFFFFFFFFCE
:10024000FFFFFFFFFFFFFFFFFFFFFFFFFFFFFFFFBE
:10025000FFFFFFFFFFFFFFFFFFFFFFFFFFFFFFFFAE
:10026000FFFFFFFFFFFFFFFFFFFFFFFFFFFFFFFF9E
:10027000FFFFFFFFFFFFFFFFFFFFFFFFFFFFFFFF8E
:10028000FFFFFFFFFFFFFFFFFFFFFFFFFFFFFFFF7E
:10029000FFFFFFFFFFFFFFFFFFFFFFFFFFFFFFFF6E
:1002A000FFFFFFFFFFFFFFFFFFFFFFFFFFFFFFFF5E
:1002B000FFFFFFFFFFFFFFFFFFFFFFFFFFFFFFFF4E
:1002C000FFFFFFFFFFFFFFFFFFFFFFFFFFFFFFFF3E
:1002D000FFFFFFFFFFFFFFFFFFFFFFFFFFFFFFFF2E
:1002E000FFFFFFFFFFFFFFFFFFFFFFFFFFFFFFFF1E
:1002F000FFFFFFFFFFFFFFFFFFFFFFFFFFFFFFFF0E
:1003000030B587B000F08AF9324B8022D96F5200A5
:100310000A43DA67D96F8022D2010A43DA67D96FBC
:10032000802212010A43DA67DA6F80210A43DA6712
:1003300029482A4A0124106029486442D06029488B
:10034000106129489061E02040001450DA6F8A4320
:10035000DA6700F009FA254C2549201C00F06AFAFA
:10036000201C00F035FA234B96225200009302A87D
:100370003223002100F084F81F48022100F06CF9BC
:10038000002000F095F91D4A1D4B1B481A601D4ABC
:100390001D4B1A6000F092F900F096F91B4D2B7876
:1003A000002BF9D01A4C2368002B01DA194B23607B
:1003B000194B02A81B7821685BB2013302D100F00F
:1003C00091F801E000F064F800232B7023680133FA
:1003D0002360E1E704800440FF00FFFF00C000400D
:1003E000FFFFFF0504FF03FFFFFFFF0208010010EE
:1003F000000048431027000000400640410500006F
:100400002C010010ED05000028010010180100105B
:100410001C010010FFFFFF7F06010010034B0122AB
:100420001A70034B19680A431A60704718010010CC
:10043000F440005008B500F077FB08BD13B50A1C66
:1004400001688A4204D2002000927F23021C07E048
:1004500044688368A24206D80092081C7F22211CAF
:1004600000F038FA031C181C16BD13B5031C0C1C35
:100470009A68D96840680023009400F02BFA16BDF2
:100480008360009B016089184160C918C160704792
:1004900030B5436885B0994202D38368002B1DD0E4
:1004A000FFF7CCFF051C00F025FA7F240C4B204001
:1004B0001B7800900020211C021C00F00BFA009019
:1004C0000020211C021C2B1C00F004FA6A460019B3
:1004D0000F3210700121032000F068F905B030BD23
:1004E0002001001030B54368C46885B0E21A91421B
:1004F00021D88268002A1ED0C918FFF7B6FF051C54
:1005000000F0F8F97F240D4B20401B78009000206C
:10051000211C021C00F0DEF900900020211C021CAE
:100520002B1C00F0D7F96A4600190F321070012118
:10053000032000F03BF905B030BDC046200100109B
:10054000224BF0B51870224B00261970214B85B054
:100550001E607F231B1A6C46E3730F34221C051C9C
:100560000121301C00F022F9281C432100F073FB0C
:10057000CFB2381C0C2100F06EFB0621C0B200F097
:100580006AFBC9B20191281C0C2100F064FB019A9E
:10059000114B01209B5C221C59182170311C00F06A
:1005A00005F90E4C0E4B7F00F95A201C00F074F92F
:1005B000201C00F079F90B4B01211A680A431A60DC
:1005C000094B802292001A6005B0F0BD06010010B0
:1005D000200100101C010010000100100801001093
:1005E000740E0000F040005000E100E013B5094C2B
:1005F00023785AB290420CD16A460732DB4300207E
:100600000121137000F0D2F8FF232370024B002267
:100610001A6013BD060100101C01001008B50D4B37
:1006200024229A608E22920099588020814399500A
:10063000D8680121074A0842FAD0032010675167A1
:100640005A6FD107FCD5034B02229A6700F060F97C
:1006500008BDC0460080044038B50F4B01251D6021
:1006600003687C2293430422134303600B49041C58
:1006700000F086FA2A1C0A490A230A4800F0E2F927
:10068000094B00221A705A709A70DA70074B0822D0
:10069000E5601A6038BDC04694800440127A0000BC
:1006A000300100103C0100102201001000E100E0C8
:1006B000014B18707047C0462101001003680122E9
:1006C000134303607047000037B500246D46EC719A
:1006D00007351A481A492A1C012300F083FAA04260
:1006E0002BD02978174B4AB2A2420CDA164A0F20B7
:1006F000127819705C709C70DC7001408A421AD1CB
:1007000001225A7017E05A78002A14D09A780132E0
:10071000D2B29A70D00701D5D9700CE01A78802A2D
:1007200003D0902A07D1094A00E0094A1268002A3A
:1007300001D0D8789047FFF7C7FF37BD004006408B
:100740003C01001022010010210100102C010010BA
:100750002801001008B50248024900F02FFA08BD30
:10076000004006403C01001010B592230C4C5B0089
:100770002360201C0B4900F0C5F980B26062A368B9
:100780003C221343A360201C0F21002200F0C2F979
:10079000226801231A432260034A136010BDC04639
:1007A0000080054040420F0000E100E0137809029C
:1007B00019434002014389B2044B9A689007FBD564
:1007C000A7200005084398617047C0460080054097
:1007D0000378002B04D1034B04215A688A435A60E2
:1007E0007047C04600400050F8B5051C0C1C00F0D6
:1007F0001FF92F786E68032F18D80123632C10D8A7
:1008000000F017FB311C00F061FA00F0CFFA061C73
:10081000431C002C05D0201C7043642100F01BFAFF
:10082000331A8137024ABF00BB502C72F8BDC04654
:100830000040005038B5144C012307222360226584
:10084000221C00254C3215808021C12249019200D2
:10085000A150C02259429200A1500C4A2381A350BA
:100860000B4A0C49A350C3229200A150C22292000D
:10087000A350A0230222DB00E25032210634FFF70E
:10088000B3FFE58738BDC0460040005004050000B6
:100890000C050000011000000278024B803292002B
:1008A000D15070470040005010B5041C00F0C0F853
:1008B0002278074B80329200D15800F0CCF900F03A
:1008C000B8FA217A6060201CFFF78EFF10BDC04689
:1008D0000040005038B5091A051C0020141C814244
:1008E00007D09B1A049A551B281C584300F0B0F9F6
:1008F000201838BD054B19684A08C80702D5B4212D
:1009000009024A401A6018687047C0461401001076
:1009100008B500F08DF8014B186008BD50010010BB
:1009200008B5C205120F1F2101409200034BD05899
:100930000131490000F08FF908BDC046FC0E0000EF
:100940001F231840013048437047C046034B1864CA
:1009500000225A6401225A647047C0460080044055
:10096000034B186700225A6701225A677047C04636
:1009700000800440054BE0229850E422002098506B
:1009800001209850E82299507047C04600800440EA
:1009900008B5024B586AFFF7C3FF08BD008004404A
:1009A000094B1A6C03231340012B05D0032B06D0EF
:1009B000002B07D1054806E0054B186803E0054BFE
:1009C000186800E00020704700800440001BB7005A
:1009D0006C0E0000700E000010B5044B9C68FFF711
:1009E000DFFF011C201CFFF7ABFF10BD008004409F
:1009F00008B50D4B1A6F03231340012B09D002DCFD
:100A0000002B0FD003E0022B06D0032B07D00020D1
:100A100009E0FFF7C5FF06E0FFF7BAFF03E0FFF7C5
:100A2000DBFF00E0014808BD00800440001BB70068
:100A300008B5FFF7DDFF024B996F00F00CF908BD18
:100A40000080044001604360826000230361C36052
:100A50000120704738B5041C0568C2680369D21AC2
:100A600043689A420DDA013BC26813408268101C49
:100A70005843281800F0E4F8E3680133E3600120EC
:100A800000E0002038BDC046F8B5041C0F1C01680A
:100A9000C3680069834232D0E0682369C01A66687F
:100AA000731E25692B401D18B54201D3F61A00E0CC
:100AB000061C801B151EB54200DD351C561B8642E8
:100AC00000DD061CA2685343C9186A43381C00F0B5
:100AD000B7F82269AB182361616801390B40A2683D
:100AE000111C594323685918101C68433818724365
:100AF00000F0A6F8226993192361A81900E00020EC
:100B0000F8BDC04610B50C1CFFF792FF211C00F089
:100B1000A2F810BD012A03D1C3681943C16002E0E5
:100B2000036919430161704708B5022000F074F8A9
:100B30000020FFF70BFF104B1A6903218A430121A4
:100B40000A431A61802000F055F841220B4B9A604D
:100B5000802000F061F809490122CB681A42FCD0DC
:100B60000122064B9A670320FFF7FAFE03200121BA
:100B7000FFF700FF08BDC0460000044000800440AD
:100B8000F8B5071C0E1CFFF733FF051C310100F000
:100B900062F8041C464331016D1A2802401B00F024
:100BA0005AF8013C3C62044BFF22F0215A500240AB
:100BB000F4215A50F8BDC04600800440F0B583B01F
:100BC000041C0F1C01266D46073505E063692B7078
:100BD000381C291CFFF73EFFA3681E42F6D103B064
:100BE000F0BDC04608B5081C111C1A1CFFF74CFFCD
:100BF00008BDC046054A8E239B00D15808430449CE
:100C0000084004490843D0507047C0460080044063
:100C1000EF800000106D000010B5064A8E239B0087
:100C2000D45805490C4001408C43211C0348014322
:100C3000D15010BD00800440EF800000106D000016
:100C400008B500F0FCF808BD08B5FFF759FB08BD72
:100C500003000B4321D4002931D00122D20703091C
:100C600001E0090112099942FBD9430801E049005A
:100C700052089942FBD900E04908401A07D3524173
:100C8000FAD301461046704749084018F7D2921827
:100C9000FAD34018014610467047CB0F00D04942A6
:100CA000021000D54042534008B5FFF7D4FF0CBCFA
:100CB000521000D34042002A00D549421847F4465A
:100CC000002000F001F860477047000070B5C20DC9
:100CD000FF2422404BD0A24249D0CB0D234046D026
:100CE000A34244D00E1C8025D41A2D060B02464088
:100CF000000228431D436B08013B42089A4202DA76
:100D0000211C7D3102E0211C52107E31F00FC00108
:100D10005200D41A00D4221C5200D41A00D4221C2F
:100D20005200D41A00D4221C5200D41A00D4221C1F
:100D30005200D41A00D4221C5200D41A00D4221C0F
:100D4000940620433F24A2431A24E0410402DFD545
:100D50005200D31ADB43DB0FC018FD2902D8C905A6
:100D600040181FE0C00FC007002914DA1AE0FF2561
:100D700044002D06AC4214D84A00AA4211D80B1CDC
:100D800003435B001B0E0CD04840C00FC007230E6E
:100D900008D0AA4203D0FF23DB05184302E09442A7
:100DA00000D1014870BDC0460000C07F8022C30D45
:100DB000010212069E201143C01A02D4C140081C31
:100DC00006E0FE2B02D90020914201D1180A013819
:100DD000704700282BD0030C01D1000402E08023CF
:100DE0001B05C918030E01D1000202E08023DB04B9
:100DF000C918030F01D1000102E080239B04C91828
:100E0000830F01D1800002E080235B04C918002811
:100E100001DB400002E080231B04C918803003126C
:100E20005918000601D101239943081C00E0002055
:100E3000704708B58021C905FFF7CBFF08BD844680
:100E4000830708D18B0706D1131F04D304C904C03C
:100E5000043BFBD21A1D524205D0891A801A8B5CC2
:100E600083540132FBD1604670470000001BB7007D
:100E700000000000FE0D350D770CC40B1B0B7C0A27
:100E8000E5095709D0085208DA076907FF069A06EC
:100E90003B06E2058D053D05F204AB046804280419
:100EA000ED03B4037F034D031D03F002C6029E024F
:100EB0007802550233021402F601DA01BF01A601DD
:100EC0008E01780163014F013C012A0119010901DA
:100ED000FA00EC00DF00D200C700BB00B100A700A1
:100EE0009D0094008C0084007D0076006F006900F6
:100EF00063005D00580053004E004A0000000000EF
:100F0000C027090090051000C05C1500F0B31A005E
:100F1000200B2000009F2400E0322900C0C62D00D5
:100F200050973100E06735007038390000093D0006
:0C0F30004016400080234300C030460003
:100F3C00828294A9BCD3FF00000000000000A041F5
:080F4C0032000000E1AC0000DE
:0400000300000103F5
:00000001FF
