:100000000004001003010000D5000000D70000002C
:1000100000000000000000000000000000000000E0
:10002000000000000000000000000000D9000000F7
:100030000000000000000000DB000000DD00000008
:1000400015070000DF00000000000000DF000000D6
:10005000DF000000DF0000000000000000000000E2
:10006000DF00000019040000DF000000DF000000D6
:10007000DF000000DF00000000000000DF000000E3
:100080000000000000000000000000000000000070
:100090000000000000000000000000000000000060
:1000A000DF000000DF000000DF000000DF000000D4
:1000B000DF000000DF000000DF000000DF000000C4
:1000C000C00F00000001001010000000100100101F
:1000D00020000000FEE7FEE7FEE7FEE7FEE7FEE7A2
:1000E00010B50023934203D21C585C500433F9E747
:1000F00010BD00238B4203D200221A500433F9E7CB
:10010000704710B50C4C0D4B9C4207D220686168BB
:100110000C34231F1A68FFF7E3FFF4E7084B9C42F7
:1001200005D220686168FFF7E4FF0834F6E700F0C5
:1001300081FA00F0D3FCFEE7C0000000CC00000014
:10014000D4000000FFFFFFFFFFFFFFFFFFFFFFFFE7
:10015000FFFFFFFFFFFFFFFFFFFFFFFFFFFFFFFFAF
:10016000FFFFFFFFFFFFFFFFFFFFFFFFFFFFFFFF9F
:10017000FFFFFFFFFFFFFFFFFFFFFFFFFFFFFFFF8F
:10018000FFFFFFFFFFFFFFFFFFFFFFFFFFFFFFFF7F
:10019000FFFFFFFFFFFFFFFFFFFFFFFFFFFFFFFF6F
:1001A000FFFFFFFFFFFFFFFFFFFFFFFFFFFFFFFF5F
:1001B000FFFFFFFFFFFFFFFFFFFFFFFFFFFFFFFF4F
:1001C000FFFFFFFFFFFFFFFFFFFFFFFFFFFFFFFF3F
:1001D000FFFFFFFFFFFFFFFFFFFFFFFFFFFFFFFF2F
:1001E000FFFFFFFFFFFFFFFFFFFFFFFFFFFFFFFF1F
:1001F000FFFFFFFFFFFFFFFFFFFFFFFFFFFFFFFF0F
:10020000FFFFFFFFFFFFFFFFFFFFFFFFFFFFFFFFFE
:10021000FFFFFFFFFFFFFFFFFFFFFFFFFFFFFFFFEE
:10022000FFFFFFFFFFFFFFFFFFFFFFFFFFFFFFFFDE
:10023000FFFFFFFFFFFFFFFFFFFFFFFFFFFFFFFFCE
:10024000FFFFFFFFFFFFFFFFFFFFFFFFFFFFFFFFBE
:10025000FFFFFFFFFFFFFFFFFFFFFFFFFFFFFFFFAE
:10026000FFFFFFFFFFFFFFFFFFFFFFFFFFFFFFFF9E
:10027000FFFFFFFFFFFFFFFFFFFFFFFFFFFFFFFF8E
:10028000FFFFFFFFFFFFFFFFFFFFFFFFFFFFFFFF7E
:10029000FFFFFFFFFFFFFFFFFFFFFFFFFFFFFFFF6E
:1002A000FFFFFFFFFFFFFFFFFFFFFFFFFFFFFFFF5E
:1002B000FFFFFFFFFFFFFFFFFFFFFFFFFFFFFFFF4E
:1002C000FFFFFFFFFFFFFFFFFFFFFFFFFFFFFFFF3E
:1002D000FFFFFFFFFFFFFFFFFFFFFFFFFFFFFFFF2E
:1002E000FFFFFFFFFFFFFFFFFFFFFFFFFFFFFFFF1E
:1002F000FFFFFFFFFFFFFFFFFFFFFFFFFFFFFFFF0E
:10030000F8B5051C0C1C00F0B7FA2F786E68032FA7
:1003100018D80123632C10D800F0F1FC311C00F038
:100320001FFC00F0A9FC061C431C002C05D0201C5F
:100330007043642100F0D9FB331A8137024ABF00B1
:10034000BB502C72F8BDC04600400050F8B51E4CA2
:10035000071C201C01250E1C00F0D2FA0723256083
:10036000236500F089FA00F0CAFC311C00F0F8FBAC
:1003700000F082FC231C00264C331E80B0335860F2
:1003800080239B00E0508022C12352019B00E25059
:10039000C0236A429B00E2500C4B2581E5500C4B78
:1003A0000C4AE550C3239B00E250C2239B00E5505A
:1003B000A0230222DB00E250381C32210634FFF772
:1003C0009FFFE687F8BDC0460040005004050000CE
:1003D0000C0500000110000038B5041C0D1C081CA1
:1003E000002100F092FC002812D1217A201C6560C7
:1003F000FFF786FF00F040FA00F081FC291C00F0B6
:10040000AFFB00F01DFC2478024B8034A400E050C8
:1004100038BDC0460040005008B5064B1A68002A97
:1004200001D01B689847044B01211A680A431A60DF
:1004300008BDC04614010010F440005038B5050353
:10044000041C7F21281A00F04DFB82B20020011C01
:1004500000F02EF97F21601B00F044FB094B0021C6
:10046000C21892B2012000F023F93220532C00D997
:100470000F20642100F039FB0348C9B2FFF740FFA9
:1004800038BDC046FF0F000000010010044B198862
:100490004A08C80701D503494A401A80188870479E
:1004A0000C01001000B4FFFF38B5104CA0252368E4
:1004B0002D06002B0BD0FFF7E9FF012318409840D1
:1004C00084239B01E8502368013B23600CE08A23CE
:1004D00002229B01EA50064B01211A688A431A60E6
:1004E0008022044B9200DA6738BDC046100100102C
:1004F000F040005004E100E0074B084A1960084B47
:1005000001211A60074B1A680A431A60064B8022C1
:1005100092001A607047C04610010010A904000044
:1005200014010010F040005000E100E0F7B500F0C9
:1005300013F9344A8021D36F33480B43D367334BCD
:100540000124186032486442D8603248022518619C
:10055000314801279861E02040001C50A0208B0109
:100560000006C4582C43C450D36F04258B43D36773
:1005700000F064F8294E2A49301CFFF7E7FE294BAA
:10058000294C5A68201CAA435A60284B1F6000F06F
:1005900019FA23687C2293431D43E1212560201C26
:1005A0006D46490200F052FA073500232B7023688C
:1005B0003B43236030241C48291C012200F036FAFA
:1005C0000028F8D0287843B2002B04DA70240F27D3
:1005D00004400740EFE7012FEDD1102CEBD1FFF7DE
:1005E0002DFF28787F2100F080FA114BC9B28900D5
:1005F000C958301CFFF7F0FE8021301C4900FFF77E
:100600007BFFD8E704800440FF00FFFF00C00040EC
:10061000FFFFFF0304FF05FFFFFFFF0200010010C3
:100620008D978A4600400050004006409480044068
:10063000780D000008B500F089F908BD38B51649F5
:1006400002220023154800F021F9154B80211A1DC4
:10065000D06F09010143D1675A680125AA435A6046
:100660005A68104C2A435A6024232360201C0E49E8
:1006700000F05AF980B26062A3683C221343A36081
:10068000201C0F21002200F057F923682B43236020
:10069000064B1D6038BDC04618010010180100103F
:1006A0000080044000800540002D310100E100E0A1
:1006B00037B56B460633002806D0012823D1120532
:1006C0008903120D114306E00F481205120D024373
:1006D0008803111C01430D481980846802210C4ACB
:1006E0000C420CD0D5681469A54208D11A88F723AA
:1006F0001B0513438361012200F01EF903E0101C67
:10070000191C00F0CBF837BD0080FFFF00800540CA
:100710001801001037B50E4C0022201C022100F0F9
:100720000BF90C48C26803699A4210D06D46002349
:10073000EB800635291C00F0CBF82A88F7231B052F
:100740001343A361201C0221012200F0F5F837BDFC
:10075000008005401801001008B500F08DF8014B2D
:10076000186008BD2C01001008B5C205120F1F212A
:1007700001409200034BD0580131490000F0B5F917
:1007800008BDC046800F00001F23184001304843B9
:100790007047C046034B186400225A6401225A6411
:1007A0007047C04600800440034B186700225A6718
:1007B00001225A677047C04600800440054BE02282
:1007C0009850E4220020985001209850E822995037
:1007D0007047C0460080044008B5024B586AFFF7D6
:1007E000C3FF08BD00800440094B1A6C032313406B
:1007F000012B05D0032B06D0002B07D1054806E0BE
:10080000054B186803E0054B186800E000207047AE
:1008100000800440001BB700780F00007C0F000030
:1008200010B5044B9C68FFF7DFFF011C201CFFF78D
:10083000ABFF10BD0080044008B50D4B1A6F0323B9
:100840001340012B09D002DC002B0FD003E0022B58
:1008500006D0032B07D0002009E0FFF7C5FF06E014
:10086000FFF7BAFF03E0FFF7DBFF00E0014808BD38
:1008700000800440001BB70008B5FFF7DDFF024B06
:10088000996F00F032F908BD0080044001604360B8
:10089000826000230361C3600120704738B5041CE7
:1008A0000568C2680369D21A43689A420DDA013BAF
:1008B000C26813408268101C5843281800F00AF9D7
:1008C000E3680133E360012000E0002038BDC0464A
:1008D00010B5041C081C2168E26823699A420DD0F7
:1008E0006368013B22691340A2685343C91800F0B2
:1008F000F1F8236901332361012000E0002010BDDD
:10090000074B802158588022520010435850586895
:1009100004490140596059680A435A607047C0460B
:1009200000800440FFFEFFFF10B50C1CFFF7A4FF82
:10093000211C00F0DAF810BD012A03D1C368194365
:10094000C16002E0036919430161704708B50220E4
:1009500000F0ACF80020FFF71DFF104B1A690321CF
:100960008A4301210A431A61802000F08DF8412258
:100970000B4B9A60802000F099F809490122CB685E
:100980001A42FCD00122064B9A670320FFF70CFFA6
:1009900003200121FFF712FF08BDC04600000440FC
:1009A00000800440054B984204D0054B984203D187
:1009B0000F2002E00E2000E01020704700400640AB
:1009C0000080064038B5041CFFF7ECFF144A802372
:1009D000D15801258540281C0843D050114B9C421A
:1009E00008D1131C516808229143596059680A4381
:1009F0005A6013E00C4B9C4208D1094B59681022F5
:100A00009143596059680A435A6007E0044B59689A
:100A100020229143596059680A435A6038BDC04644
:100A200000800440004006400080064030B50023AE
:100A3000012503E044690C7001310133934202DA6D
:100A400084682542F6D1181C30BDC046F8B5071C95
:100A50000E1CFFF7F1FE051C310100F046F8041CE6
:100A6000464331016D1A2802401B00F03EF8013C5C
:100A70003C62044BFF22F0215A500240F4215A50AC
:100A8000F8BDC04600800440054A8E239B00D15823
:100A900008430449084004490843D0507047C04601
:100AA00000800440EF800000106D000010B5064A81
:100AB0008E239B00D45805490C4001408C43211CD7
:100AC00003480143D15010BD00800440EF80000076
:100AD000106D000008B500F038F908BD08B5FFF743
:100AE00025FD08BD03000B4321D4002931D001228C
:100AF000D207030901E0090112099942FBD9430811
:100B000001E0490052089942FBD900E04908401A27
:100B100007D35241FAD3014610467047490840189E
:100B2000F7D29218FAD34018014610467047CB0FFF
:100B300000D04942021000D54042534008B5FFF7AB
:100B4000D4FF0CBC521000D34042002A00D54942C9
:100B50001847F446002000F001F860477047000095
:100B600070B5C20DFF2422404BD0A24249D0CB0D1C
:100B7000234046D0A34244D00E1C8025D41A2D0613
:100B80000B024640000228431D436B08013B42080C
:100B90009A4202DA211C7D3102E0211C52107E3182
:100BA000F00FC0015200D41A00D4221C5200D41AF3
:100BB00000D4221C5200D41A00D4221C5200D41A91
:100BC00000D4221C5200D41A00D4221C5200D41A81
:100BD00000D4221C940620433F24A2431A24E0415F
:100BE0000402DFD55200D31ADB43DB0FC018FD2906
:100BF00002D8C90540181FE0C00FC007002914DA49
:100C00001AE0FF2544002D06AC4214D84A00AA423F
:100C100011D80B1C03435B001B0E0CD04840C00FC7
:100C2000C007230E08D0AA4203D0FF23DB051843D8
:100C300002E0944200D1014870BDC0460000C07F70
:100C4000802201021206C30D11439E20C01A10B566
:100C50000C1CC440201C9D2B0BD9DCB29D2C01D850
:100C6000404206E0FF2C01D1914202D1180A014B0B
:100C7000C01810BDFFFFFF7F8022C30D01021206C6
:100C80009E201143C01A02D4C140081C06E0FE2B6E
:100C900002D90020914201D1180A0138704700287A
:100CA0002BD0030C01D1000402E080231B05C918DE
:100CB000030E01D1000202E08023DB04C918030FF8
:100CC00001D1000102E080239B04C918830F01D1E8
:100CD000800002E080235B04C918002801DB40008B
:100CE00002E080231B04C918803003125918000643
:100CF00001D101239943081C00E00020704708B58A
:100D00008021C905FFF7CBFF08BD0A1CFF2370B582
:100D10000243041C0D1C1B06002A06DB49000020B0
:100D2000994211D8A54240410EE0460000209E4263
:100D30000AD84900994207D80120A54204D9802346
:100D40001B06D0184242504170BD8446830708D12B
:100D50008B0706D1131F04D304C904C0043BFBD284
:100D60001A1D524205D0891A801A8B5C83540132B5
:100D7000FBD1604670470000E5D082458D978A45DB
:100D8000FED4924568919B45E5D0A445A69BAE450F
:100D9000F4FDB8450000C445E3A5CF450000DC459F
:100DA0008716E945AAF1F645E5D002468D970A4631
:100DB000FED412465C8F1B46D9CE2446A69B2E46F7
:100DC000F4FD3846F4FD4346E3A54F4600005C467B
:100DD0007B1469469EEF7646DFCF82468D978A4622
:100DE000FED492465C8F9B46DFCFA446AC9CAE46B9
:100DF000FAFEB846FAFEC346E9A6CF460000DC4636
:100E00007B14E946A4F0F646DFCF02470A970A476B
:100E1000FED41247DF8F1B47DFCF24472F9D2E477D
:100E20007DFF3847FAFE4347D7A34F4700005C4792
:100E30007B146947A4F076475CCF82470A978A47BC
:100E40007BD492475C8F9B475CCFA447299CAE47DD
:100E500071FDB84771FDC34766A6CF470000DC4768
:100E60007B14E947A4F0F647A4D002480A970A4841
:100E70007BD41248A4901B48A4D02448719D2E48CE
:100E8000B8FE3848B8FE4348AEA74F4800005C485B
:100E90007B146948A4F05B4800D08248AE978A482A
:100EA0001FD5924800909B48A4D0A448719DAE489D
:100EB0005CFFB8485CFFC3480AA7CF480000DC4885
:100EC0007B14E94848F1F64800D0024966960A4981
:100ED00066D6124900901B4900D02449CD9C2E496A
:100EE000000039490000444966A64F4900005C49AA
:100EF0006616694900F0764900D0824900988A490F
:100F0000CDD4924900909B4900D0A449CD9CAE49D4
:100F10000000B9490000C44966A6CF490000DC4979
:100F2000CD14E9499AF1F64900D0024A33970A4AAA
:100F3000CDD4124A00901B4A00D0244A9A9D2E4AD2
:100F400033FF384A33FF434A33A74F4A00005C4A15
:100F5000CD14694ACDF0764A00D0824A33978A4A46
:100F600033D5924A66909B4A66D0A44A339DAE4AD6
:100F700033FFB84A9AFFC34A001BB70000000000C5
:100F800000000000C027090090051000C05C15009B
:100F9000F0B31A00200B2000009F2400E03229004B
:100FA000C0C62D0050973100E06735007038390019
:100FB00000093D004016400080234300C030460039
:100FC000000000000000A04132000000E1ACFFFF83
:0400000300000103F5
:00000001FF
