:1000000000100010ED000000D5000000D900000035
:1000100000000000000000000000000000000000E0
:10002000000000000000000000000000DD000000F3
:100030000000000000000000E1000000E5000000FA
:1000400039070000E900000000000000E90000009E
:10005000E9000000E90000000000000000000000CE
:100060003D060000E9000000E9000000E900000092
:10007000E9000000E900000000000000E9000000C5
:100080000000000000000000000000000000000070
:100090000000000000000000000000000000000060
:1000A000E9000000E9000000E9000000E9000000AC
:1000B000E9000000E9000000E9000000E90000009C
:1000C000800B000000000010000000000000001085
:1000D000EC000000FEE7C046FEE7C046FEE7C04673
:1000E000FEE7C046FEE7C046FEE7C04670B5174CC7
:1000F000174DAC420ED2206861680C34231F1A6879
:100100000023002AF5D01E585E5004339A42FAD8D4
:10011000AC42F0D30F4A944213D2231C0833D51DAE
:10012000ED1AED08ED005D190021626820680023DA
:10013000002A03D0195004339A42FBD80834AC4249
:10014000F3D100F049F900F09FFCFEE7C000000089
:10015000CC000000D400000010B50023002A04D019
:100160001C585C5004339A42FAD810BD0023002278
:10017000002903D01A5004339942FBD87047C04677
:10018000FFFFFFFFFFFFFFFFFFFFFFFFFFFFFFFF7F
:10019000FFFFFFFFFFFFFFFFFFFFFFFFFFFFFFFF6F
:1001A000FFFFFFFFFFFFFFFFFFFFFFFFFFFFFFFF5F
:1001B000FFFFFFFFFFFFFFFFFFFFFFFFFFFFFFFF4F
:1001C000FFFFFFFFFFFFFFFFFFFFFFFFFFFFFFFF3F
:1001D000FFFFFFFFFFFFFFFFFFFFFFFFFFFFFFFF2F
:1001E000FFFFFFFFFFFFFFFFFFFFFFFFFFFFFFFF1F
:1001F000FFFFFFFFFFFFFFFFFFFFFFFFFFFFFFFF0F
:10020000FFFFFFFFFFFFFFFFFFFFFFFFFFFFFFFFFE
:10021000FFFFFFFFFFFFFFFFFFFFFFFFFFFFFFFFEE
:10022000FFFFFFFFFFFFFFFFFFFFFFFFFFFFFFFFDE
:10023000FFFFFFFFFFFFFFFFFFFFFFFFFFFFFFFFCE
:10024000FFFFFFFFFFFFFFFFFFFFFFFFFFFFFFFFBE
:10025000FFFFFFFFFFFFFFFFFFFFFFFFFFFFFFFFAE
:10026000FFFFFFFFFFFFFFFFFFFFFFFFFFFFFFFF9E
:10027000FFFFFFFFFFFFFFFFFFFFFFFFFFFFFFFF8E
:10028000FFFFFFFFFFFFFFFFFFFFFFFFFFFFFFFF7E
:10029000FFFFFFFFFFFFFFFFFFFFFFFFFFFFFFFF6E
:1002A000FFFFFFFFFFFFFFFFFFFFFFFFFFFFFFFF5E
:1002B000FFFFFFFFFFFFFFFFFFFFFFFFFFFFFFFF4E
:1002C000FFFFFFFFFFFFFFFFFFFFFFFFFFFFFFFF3E
:1002D000FFFFFFFFFFFFFFFFFFFFFFFFFFFFFFFF2E
:1002E000FFFFFFFFFFFFFFFFFFFFFFFFFFFFFFFF1E
:1002F000FFFFFFFFFFFFFFFFFFFFFFFFFFFFFFFF0E
:1003000070B5A4B000F080F82C4A8023D05840216A
:100310000143D150D058802109010143D150D05818
:10032000802109030143D150D05820210143D150ED
:10033000D15823481943D15022494F24C86022483C
:100340006442086121488025C861F6204042086265
:10035000E02040000C50D158A0249943D1502406ED
:100360009B01E258ED0188262A43B601E250A551CF
:1003700000F072F908226846072100F09BF86846F1
:10038000012100F0F3F8A551114800F029F8114CB3
:1003900088268A25684600F021F92388002BF9D0A9
:1003A0006B469A5B0121002000F08AF96B465A5B8C
:1003B0000121012000F084F9ECE7C04600800440F0
:1003C000FFFFFF0600C0004007FF11FFFFFFFF0B0C
:1003D000004002400400001008B500F025FB08BDF5
:1003E00007B58020000200F00BFB0648012243689D
:1003F000102113434360802200230093520000F039
:10040000DDF907BD0040024008B50D4B24229A607B
:100410008E2292009958802081439950D8680121FA
:10042000074A0842FAD00320106751675A6FD10774
:10043000FCD5034B02229A6700F0CEF908BDC046F6
:100440000080044070B58AB001AB6C221A7006932C
:100450005970002305930222031C04928C331B78ED
:1004600004AC094E23753368051C5B6907495B6C56
:1004700040689847336868685B69211C5B6802AA1A
:1004800098470AB070BDC046F81FFF1F1027000034
:10049000024B1A88013292B21A8070470400001091
:1004A00008B54178FFF7CEFF08BD08B50178FFF722
:1004B000C9FF08BD70B50E1C041C151C00F026FAFF
:1004C000311C2248022200F031FA291C1F48022266
:1004D00000F02CFA82232370221C01231C4E63702F
:1004E0008C3213703368211C5B6908315B6B1948CF
:1004F0009847194B00221860184B051C60601A8041
:10050000904200D1FEE733685B699E6B00F0F4F91E
:10051000134A011C281CB047051E00D0FEE72378B3
:10052000082213432370637860229343022213430B
:100530006370201CFFF7B9FF201CFFF7B1FF094BC8
:1005400080221D60084B52001A6070BD00400440BC
:10055000F81FFF1F000005400000001004000010FD
:10056000801A06000800001000E100E0F8B5061C43
:100570008C36164D164C00291BD000233370406872
:1005800000F0FCF82B6827685B699E6B00F0B4F9FB
:10059000104A011C381CB047002816D02B6824686C
:1005A0005B699D6B00F0A8F90B4A011C201CA84751
:1005B0000BE02B6824685B699D6B00F09DF9064A8F
:1005C000011C201CA84701233370F8BDF81FFF1F32
:1005D0000000001040420F00801A060070B5031C96
:1005E00088336C2288B01A7000220292042203928F
:1005F00005938C30037802AC23750B4B0B4E06939E
:1006000033680B4D5B6928685B6C0A4998470A4B55
:10061000012252421A60336828685B69211C5B69B9
:100620006A46984708B070BD91040000F81FFF1F8C
:1006300000000010A08601000800001008B5044B5F
:10064000044A1B6810685B691B68984708BDC04670
:10065000F81FFF1F0000001038B513490222642361
:10066000124800F06FF9124B01255A68114CAA4349
:100670005A605A68201C2A435A60242323600E497A
:1006800000F09AF980B26062A3683C221343A36031
:10069000201C0F21002200F097F923682B432360D0
:1006A000064B1D6038BDC046200000100C00001035
:1006B00000800440008005408096980000E100E042
:1006C00037B5002806D001282CD112058903120D58
:1006D000114306E0154B1205120D1A438B03111C32
:1006E000194313486B468468D9806A460221063252
:1006F000104B0C420DD0DD681C69A54209D112884F
:10070000F7231B0513438361012200F05DF90020EC
:1007100009E0181C111C00F01DF9434258414042E9
:10072000C0B200E0FF2040B23EBDC0460080FFFFE7
:10073000008005400C00001037B50E4C0022201C34
:10074000022100F041F90C48C26803699A4210D0B6
:100750006D460023EB800635291C00F015F92A8828
:10076000F7231B051343A361201C0221012200F083
:100770002BF937BD008005400C00001070B58AB021
:100780006B460F22DA710733069304AC00230A4E3E
:1007900023750593336801225B69FA2104925B6C2F
:1007A0008900051C98473368281C5B69211C5B681D
:1007B00002AA98470AB070BDF81FFF1F30B5056840
:1007C000044C2C4021430A431A43039B1A43026002
:1007D00030BDC046E7C0FFF908B500F08DF8014B09
:1007E000186008BDE800001008B5C205120F1F21EF
:1007F00001409200034BD0580131490000F04BF901
:1008000008BDC046400B00001F231840013048437C
:100810007047C046034B186400225A6401225A6490
:100820007047C04600800440034B186700225A6797
:1008300001225A677047C04600800440054BE02201
:100840009850E4220020985001209850E8229950B6
:100850007047C0460080044008B5024B586AFFF755
:10086000C3FF08BD00800440094B1A6C03231340EA
:10087000012B05D0032B06D0002B07D1054806E03D
:10088000054B186803E0054B186800E0002070472E
:1008900000800440001BB700380B00003C0B000038
:1008A00010B5044B9C68FFF7DFFF011C201CFFF70D
:1008B000ABFF10BD0080044008B50D4B1A6F032339
:1008C0001340012B09D002DC002B0FD003E0022BD8
:1008D00006D0032B07D0002009E0FFF7C5FF06E094
:1008E000FFF7BAFF03E0FFF7DBFF00E0014808BDB8
:1008F00000800440001BB70008B5FFF7DDFF024B86
:10090000996F00F0C8F808BD00800440064B8022B3
:1009100098582021014399505968402291435960C9
:1009200059680A435A6070470080044010B5890036
:100930000C58034B234012021A430A5010BDC04604
:10094000FFFCFFFF01604360826000230361C3601E
:100950000120704738B5041C0568C2680369D21AC3
:1009600043689A420DDA013BC26813408268101C4A
:100970005843281800F084F8E3680133E36001204D
:1009800000E0002038BDC04610B5041C081C2168DA
:10099000E26823699A420DD06368013B22691340E3
:1009A000A2685343C91800F06BF82369013323612F
:1009B000012000E0002010BD10B50C1CFFF79CFFCB
:1009C000211C00F068F810BD012A03D1C368194347
:1009D000C16002E00369194301617047054A8E2333
:1009E0009B00D15808430449084004490843D050AB
:1009F0007047C04600800440EF800000106D00008A
:100A000010B5064A8E239B00D45805490C4001407E
:100A10008C43211C03480143D15010BD0080044089
:100A2000EF800000106D000008B50220FFF7E8FF1E
:100A30000020FFF7EFFE104B1A6903218A430121C2
:100A40000A431A618020FFF7C9FF41220B4B9A60CD
:100A50008020FFF7D5FF09490122CB681A42FCD05C
:100A60000122064B9A670320FFF7DEFE03200121D7
:100A7000FFF7E4FE08BDC0460000044000800440CB
:100A800008B500F042F808BD08B5FFF739FC08BD0D
:100A900003000B4321D4002931D00122D2070309DE
:100AA00001E0090112099942FBD9430801E049001C
:100AB00052089942FBD900E04908401A07D3524135
:100AC000FAD301461046704749084018F7D29218E9
:100AD000FAD34018014610467047CB0F00D0494268
:100AE000021000D54042534008B5FFF7D4FF0CBCBC
:100AF000521000D34042002A00D549421847F4461C
:100B0000002000F001F8604770478446830708D151
:100B10008B0706D1131F04D304C904C0043BFBD2C6
:100B20001A1D524205D0891A801A8B5C83540132F7
:100B3000FBD1604670470000001BB70000000000BA
:100B400000000000C027090090051000C05C1500DF
:100B5000F0B31A00200B2000009F2400E03229008F
:100B6000C0C62D0050973100E0673500703839005D
:100B700000093D004016400080234300C03046007D
:04000003000000ED0C
:00000001FF
