:1000000014C023C05CC070C115C1E7C093C01BC041
:100010001AC019C018C017C03AC115C014C013C007
:1000200012C011C010C00FC00EC011241FBECFEDF2
:10003000CDBF20E0A0E6B0E001C01D92A438B20719
:10004000E1F702D07EC1DCCFFFCF1F920F920FB637
:100050000F9211248F939F93AF93BF93EF93FF93CE
:1000600090B380B38295817092FB992790F998178D
:1000700071F0EEE6F0E080819181A281B38101967A
:10008000A11DB11D80839183A283B3830DC0EEE6D1
:10009000F0E080819181A281B3810197A109B1092A
:1000A00080839183A283B383FF91EF91BF91AF913E
:1000B0009F918F910F900FBE0F901F9018951F92D8
:1000C0000F920FB60F9211248F939F93AF93BF930C
:1000D000EF93FF9390B380B385FB882780F993FB60
:1000E000992790F9981771F0E2E7F0E0808191810B
:1000F000A281B3810196A11DB11D80839183A2834A
:10010000B3830DC0E2E7F0E080819181A281B381E9
:100110000197A109B10980839183A283B383FF91E1
:10012000EF91BF91AF919F918F910F900FBE0F9064
:100130001F9018951F920F920FB60F9211242F93B4
:100140003F934F935F936F937F938F939F93AF935F
:10015000BF93EF93FF938091780090917900A091E5
:100160007A00B0917B000196A11DB11D80937800AB
:1001700090937900A0937A00B0937B0080917C00EB
:1001800090917D00A0917E00B0917F000196A11D0D
:10019000B11D80937C0090937D00A0937E00B0936E
:1001A0007F008091600090916100892B29F0E0919F
:1001B0006000F09161000995FF91EF91BF91AF91BF
:1001C0009F918F917F916F915F914F913F912F916F
:1001D0000F900FBE0F901F9018951F920F920FB6A1
:1001E0000F9211242F933F934F935F936F937F93BD
:1001F0008F939F93AF93BF93EF93FF938091620090
:1002000090916300892B29F0E0916200F0916300E6
:100210000995FF91EF91BF91AF919F918F917F9140
:100220006F915F914F913F912F910F900FBE0F9063
:100230001F9018951F920F920FB60F9211242F93B3
:100240003F934F935F936F937F938F939F93AF935E
:10025000BF93EF93FF938091640090916500892B89
:1002600029F0E0916400F09165000995FF91EF910C
:10027000BF91AF919F918F917F916F915F914F91BE
:100280003F912F910F900FBE0F901F9018951F92C6
:100290000F920FB60F9211242F933F934F935F93BA
:1002A0006F937F938F939F93AF93BF93EF93FF933E
:1002B0008091660090916700892B29F0E09166009B
:1002C000F09167000995FF91EF91BF91AF919F91D8
:1002D0008F917F916F915F914F913F912F910F90EF
:1002E0000FBE0F901F9018951F920F920FB60F928E
:1002F00011242F933F934F935F936F937F938F932B
:100300009F93AF93BF93EF93FF9380916800909179
:100310006900892B29F0E0916800F0916900099546
:10032000FF91EF91BF91AF919F918F917F916F91CD
:100330005F914F913F912F910F900FBE0F901F90A3
:060340001895F894FFCFB0
:00000001FF
