S01500004261776C6572325F355F4350502E73726563AA
S113000016C03AC039C038C037C036C0F7C234C091
S113001033C032C031C030C02FC02EC02DC02CC060
S11300202BC02AC029C028C027C0D700E100112452
S11300301FBECFE5D1E0DEBFCDBF10E0A0E6B0E04B
S1130040E4EEF8E002C005900D92A83BB107D9F7A1
S113005020E0A8EBB0E001C01D92A63DB207E1F795
S113006010E0CCE2D0E003C02297FE0104D3CA32F0
S1130070D107D1F73FD02AC4C3CFFC018481958135
S1130080089508950895FC01738362830895FC0123
S1130090828193810895FC01848195810895FC01F6
S11300A0848195810895FC0184819581089528E8CF
S11300B030E0FC01318320830895089581E082BB00
S11300C0089584E082BB089582E082BB089528E805
S11300D030E0FC01318320836AC360E071E088EB87
S11300E090E03ED10895CBC262C3C9C2009709F023
S11300F05EC30895CF93DF93CDB7DEB76E970FB687
S1130100F894DEBF0FBECDBF88E10FB6F89481BD71
S113011011BC0FBEF8948DE690E09093C7008093D5
S1130120C6008AE0E6E6F0E0DE01559601900D9205
S11301308A95E1F78AE0E0E7F0E0DE011B960190A2
S11301400D928A95E1F78AE0EAE7F0E0DE01119684
S113015001900D928A95E1F7ED88FE880F89188D3C
S1130160298D3A8D4B8D5C8D6D8D7E8D88EB90E065
S113017073D0EB84FC840D851E852F8538894989CD
S11301805A896B897C8988EB90E066D0E980FA8093
S11301900B811C812D813E814F81588569857A852B
S11301A088EB90E059D088B3809588BBFFCF68E096
S11301B070E08EEB90E00DD26EEB70E088EB90E097
S11301C00AC088EB90E04DD188E890E09093BF009E
S11301D08093BE000895DF92EF92FF920F931F93D6
S11301E0CF93DF93EC017B0184E090E07CDF998383
S11301F08883DFB6F8940881198182E390E075DF83
S1130200F80191838083E881F98185E08283E88124
S1130210F9811382DFBE84E090E065DF9B838A83EB
S1130220DFB6F8940A811B8182E390E05EDFF80177
S113023091838083EA81FB8185E08283EA81FB816B
S11302401382DFBEFD82EC82DF91CF911F910F916B
S1130250FF90EF90DF900895CF92DF92EF92FF929C
S11302600F931F93CF93DF93CDB7DEB764970FB689
S1130270F894DEBF0FBECDBF6C01EB86FC860D8704
S11302801E872F87388B498B5A8B6B8B7C8BDC01B9
S113029012962D913C911397F9018381811111C01C
S11302A014968D919C911597DC01ED91FC9102803F
S11302B0F381E02D0995F60122813381D90113964A
S11302C08C9141E0480F4B879AE0FE013B96DE019A
S11302D0119601900D929A95E1F7F901928189178F
S11302E078F064960FB6F894DEBF0FBECDBFDF91F1
S11302F0CF911F910F91FF90EF90DF90CF900895D1
S11303005FB7F894D6011296ED91FC91139783810F
S11303106281A3D1292F30E0C901880F991F880F6A
S1130320991F820F931F880F991FA081B181A80F75
S1130330B91F49838AE0FE01319601900D928A9596
S1130340E1F75FBFD6011296ED91FC91139783817B
S11303508F5F83831296ED91FC9113978381C1CFB4
S1130360BF92CF92DF92EF92FF920F931F93CF939E
S1130370DF938C01DC011296ED91FC911397B3800D
S1130380B7FC5DC008C0BA94B7FC59C0D801129636
S1130390ED91FC91139762818B2D5FD1492F50E031
S11303A09A01220F331F220F331F240F351F220FF0
S11303B0331FC081D181C20FD31F2C813D81232BD8
S11303C011F3CE80DF80F80184819581DC01ED9109
S11303D0FC910084F185E02D0995AC015695542FCC
S11303E0442757954795480F591F440F551F481BDD
S11303F0590B9A013695322F222737952795241BBE
S1130400350B280F391F220F331F2C0D3D1D1216DB
S11304101306FCF4F80184819581DC01ED91FC91D3
S11304200084F185E02D0995F82EE12C8E819F81C1
S11304308E199F099F838E83BA94B7FEA7CFDF914D
S1130440CF911F910F91FF90EF90DF90CF90BF90CD
S113045008958C819D819F838E83E885F985099514
S113046092CFCF93DF93EC01EA81FB81808191816C
S1130470009719F03BDEEA81FB81CF0135DEE8818C
S1130480F98180819181009719F030DEE881F9814A
S1130490CF01DF91CF9128CE23B7287F23BF22B786
S11304A0FC01248384819581089523B7287F23BF89
S11304B012BEFC011482158219BE0895FC018281CA
S11304C093810895FC01248122BF82819381803429
S11304D0910509F14CF481309105C9F0089779F43C
S11304E082E083BF789408958115F1E09F0759F065
S11304F08115944021F485E083BF7894089580E0C9
S113050083BF7894089584E083BF7894089581E04C
S113051083BF7894089583E083BF7894089522B7C5
S1130520FC0124830895CF93DF93EC01F894E881D0
S1130530F9810488F589E02D099578948C819D8151
S11305401D82DF91CF910895FC01848195810895E6
S1130550CF93DF93EC01E881F9810488F589E02DDC
S113056009958C819D81DF91CF91089528E830E031
S1130570FC0131832083089528E830E0FC013183B5
S11305802083B2CDFC017383628383B7887F79F0C3
S113059083B7887F60347105C1F054F4613071050C
S11305A081F06830710599F492E0892B83BF089536
S11305B06115F1E07F0739F06115744041F495E06D
S11305C0F4CF91E0F2CF94E0F0CF93E0EECF90E05F
S11305D0ECCFFC01738362831186108682EA90E07B
S11305E091838083138612861786168612BEF09333
S11305F0D100E093D00082E089BF08951F920F924A
S11306000FB60F9211242F933F934F935F936F93E1
S11306107F938F939F93AF93BF93EF93FF93E09157
S1130620D000F091D10085818F5F85830084F185AE
S1130630E02D099582E089BFFF91EF91BF91AF91C1
S11306409F918F917F916F915F914F913F912F91E6
S11306500F900FBE0F901F901895991B79E004C05E
S1130660991F961708F0961B881F7A95C9F78095ED
S11306700895EE0FFF1F0590F491E02D0994CF9398
S1130680DF938230910510F482E090E0E091D40091
S1130690F091D50020E030E0A0E0B0E0309739F1EF
S11306A04081518148175907B8F04817590771F428
S11306B082819381109729F013969C938E931297BD
S11306C02CC09093D5008093D40027C02115310508
S11306D031F04217530718F0A901DB0101C0EF0103
S11306E09A01BD01DF010280F381E02DD7CF2115EE
S11306F03105F9F0281B390B2430310580F48A8147
S11307009B816115710521F0FB019383828304C0F1
S11307109093D5008093D400FE01329644C0FE012C
S1130720E20FF31F81939193225031093983288377
S11307303AC02091D2003091D300232B41F4209170
S11307406200309163003093D3002093D200209153
S11307506000309161002115310541F42DB73EB799
S11307604091640050916500241B350BE091D20048
S1130770F091D300E217F307A0F42E1B3F0B2817C8
S1130780390778F0AC014E5F5F4F2417350748F006
S11307904E0F5F1F5093D3004093D20081939193E7
S11307A002C0E0E0F0E0CF01DF91CF910895CF9354
S11307B0DF93009709F487C0FC01329713821282F9
S11307C0C091D400D091D500209781F4208131814B
S11307D0280F391F8091D2009091D300821793077C
S11307E079F5F093D300E093D2006DC0DE0120E0F0
S11307F030E0AE17BF0750F412964D915C911397F9
S11308009D014115510509F1DA01F3CFB383A283A8
S113081040815181840F951F8A179B0771F48D9134
S11308209C911197840F951F029691838083129651
S11308308D919C911397938382832115310529F41B
S1130840F093D500E093D4003EC0D9011396FC93F5
S1130850EE9312974D915D91A40FB51FEA17FB0714
S113086079F480819181840F951F0296D9011196A4
S11308709C938E938281938113969C938E9312976B
S1130880E0E0F0E08A819B81009719F0FE01EC0121
S1130890F9CFCE01029628813981820F931F2091CE
S11308A0D2003091D3002817390769F4309729F41E
S11308B01092D5001092D40002C013821282D093F9
S11308C0D300C093D200DF91CF91089510E0CCE221
S11308D0D0E003C0FE01CFDE2296CE32D107D1F79D
S10708E0F894FFCFB6
S11308E40000D600200000010000FF00FF005E00AD
S11308F400010000FE00FE00610000F000000001A1
S113090400016400000000003D0041004200430077
S113091447004B004F005300570067005D00000080
S113092400004C0262025502C2025E029302A80253
S10B0934A402B602BC028F020A
S9030000FC
