S01000004B505353796E74682E7372656310
S113000052C06AC069C01CC2C1C166C065C062C2B8
S113001063C062C061C060C0E6C15EC05DC05CC058
S1130020E1C05AC059C058C057C0F600CC02A4025F
S11300307E025A0238021802FA01DE01C301AA0143
S113004092017B01660152013F012D011C010C014B
S1130050FD00EF00E100D500C900BE00B300A90017
S11300609F0096008E0086007F00770071006A0072
S113007064005F005900540050004B0047004300E7
S11300803F003C003800350032002F002D002A00CC
S11300900000000000000000000000000100080053
S11300A040000001000411241FBECFEDCDBF10E0BD
S11300B0A0E6B0E0EAE5F7E002C005900D92A436B0
S11300C0B107D9F720E0A4E6B0E001C01D92A63A3A
S11300D0B207E1F7F7D03FC393CF1F93CF93DF93DA
S11300E01F92CDB7DD27182F69832CD180E025D14D
S11300F012BE82E03FD16A9A6981111106C087B3AA
S1130100806A87BB88B3806A88BB613009F46D9AC2
S11301106E9A0F90DF91CF911F91089528E020935C
S113012062006093600021E020936400362F41E078
S1130130420F393018F03850242FF9CF2093610042
S1130140603178F420E130E0261B3109AC0102C0B3
S1130150440F551F2A95E2F75093660040936500BB
S11301600895909366008093650008958EB1807F12
S11301708EB990916000983028F42EB18FE0891BDD
S1130180822B02C08EB187608EB98091610090E0AD
S1130190019723E0880F991F2A95E1F720916500C4
S11301A03091660002C0369527958A95E2F72FB9FB
S11301B080916000883010F48093620008951F934A
S11301C0CF93DF93162FC82FD0E0CE01A7DF612F86
S11301D070E0CE01CBDF82E0B0D07894DF91CF9194
S11301E01F9108951F920F920FB60F9211242F930F
S11301F03F934F935F936F937F938F939F93AF93AB
S1130200BF93EF93FF9380E098D080916000883093
S113021010F48093620090916200891B80936000C7
S113022080916100815080936100882329F09EDFD2
S113023012BE82E082D006C012BE8EB1807F8EB91B
S113024010926400FF91EF91BF91AF919F918F91B4
S11302507F916F915F914F913F912F910F900FBEBE
S11302600F901F9018950F931F93CF93DF93C3E0C4
S1130270D0E0082F10E0CE01982F8827990F802B0B
S1130280912B20916400222311F088B3FECF6BE000
S113029096DF219780F7DF91CF911F910F910895F9
S11302A0CF93CCEFC80F8C2F60E7E4D1E92FF0E0B7
S11302B0EE0FFF1FE65DFF4F808191817FD18C2F70
S11302C0CF91D1CF88E10FB6F89481BD11BC0FBE98
S11302D061E080E002DF60E084EF91E0A3D180E59B
S11302E091E055D1E0D088EA92E0EFD0FFCFFC0155
S11302F08FB7F894718360834283148213828FBF13
S11303000895FC01462F3FB7F89483812281821718
S113031088F4548190E0850F911D622F70E0B6D16E
S1130320A081B181A80FB91F4C9383818F5F838310
S113033081E001C080E03FBF089593B7987F982B78
S113034093BF089582E0F9DF12BE08959EB5987FA9
S1130350982B9EBD089583E0F9DF1DBC1CBC089555
S1130360EEB5E770F0E0EE0FFF1FE656FF4F859104
S11303709491089590B7926090BF86BF12BE08957D
S11303802EB528702EBD9BBD8ABD08951F920F9275
S11303900FB60F9211242F933F934F935F936F9354
S11303A07F938F939F93AF93BF93EF93FF9380912A
S11303B06B0090916C00892B29F0E0916B00F09117
S11303C06C000995FF91EF91BF91AF919F918F912F
S11303D07F916F915F914F913F912F910F900FBE3D
S11303E00F901F9018951F920F920FB60F92112421
S11303F02F933F934F935F936F937F938F939F9329
S1130400AF93BF93EF93FF9380916D0090916E0033
S1130410892B29F0E0916D00F0916E000995FF9110
S1130420EF91BF91AF919F918F917F916F915F9168
S11304304F913F912F910F900FBE0F901F901895E1
S11304401F920F920FB60F9211242F933F934F9345
S11304505F936F937F938F939F93AF93BF93EF9328
S1130460FF9380916F0090917000892B29F0E091A7
S11304706F00F09170000995FF91EF91BF91AF91DA
S11304809F918F917F916F915F914F913F912F91A8
S11304900F900FBE0F901F90189540E267E770E031
S11304A08FE990E024CFF9DF109276001092750066
S11304B086E083B980E98AB98FE089B912B81092CD
S11304C0A5001092A40078940895909376008093E8
S11304D0750008951F920F920FB60F9211242F9357
S11304E03F934F935F936F937F938F939F93AF93B8
S11304F0BF93EF93FF938CB12091750030917600F8
S1130500232B31F0E0917500F091760009950FC02E
S1130510682F8FE990E0F5DE811109C08091A40075
S11305209091A50001969093A5008093A400FF915B
S1130530EF91BF91AF919F918F917F916F915F9157
S11305404F913F912F910F900FBE0F901F901895D0
S113055087FF0BC010929800807F803919F4809334
S113056097000895109297000895909198009F5FC6
S11305709093980020919700203941F491709093C2
S11305809800E0919B00F0919C0009940895909349
S11305909C0080939B000895811104C08FB58F70D7
S11305A0806103C08FB58F7080648FBD08959BBD3B
S11305B08ABD99BD88BD1DBC1CBC0895CF93DF9333
S11305C0EC01CD388AE7D80714F081E012C0C235B7
S11305D08FE0D80714F082E00CC0CB3E81E0D8074E
S11305E014F083E006C0CB37D10514F084E001C0D9
S11305F085E0ACDEB5DEBC01CE01880F991F29D0A1
S11306009C0140E050E060E072E18AE790E073D042
S11306102150822F90E090939E0080939D00DF9163
S1130620CF91C5CF0F931F93CF93DF931F92CDB775
S1130630DD278C0169838FDE8FEF9FEFA1DEC80178
S1130640BDDF6981862F0F90DF91CF911F910F91AC
S1130650A3CF0024552704C0080E591F880F991FE3
S1130660009729F076956795B8F37105B9F7802D51
S1130670952F0895991B79E004C0991F961708F0E7
S1130680961B881F7A95C9F78095089597FB072EC6
S113069016F4009406D077FD08D049D007FC05D0A5
S11306A03EF4909581959F4F0895709561957F4F85
S11306B00895A1E21A2EAA1BBB1BFD010DC0AA1F9F
S11306C0BB1FEE1FFF1FA217B307E407F50720F0B7
S11306D0A21BB30BE40BF50B661F771F881F991F32
S11306E01A9469F760957095809590959B01AC017B
S11306F0BD01CF010895052E97FB16F400940FD089
S113070057FD05D0D6DF07FC02D046F408C050954B
S11307104095309521953F4F4F4F5F4F08959095E9
S11307208095709561957F4F8F4F9F4F0895AA1BB9
S1130730BB1B51E107C0AA1FBB1FA617B70710F0C8
S1130740A61BB70B881F991F5A95A9F780959095FA
S10D0750BC01CD010895F894FFCF19
S107075A0801080086
S9030000FC
